:100000000C9438000C9400010C9455000C9455008D
:100010000C9455000C9455000C9455000C9455000C
:100020000C9455000C9455000C9455000C945500FC
:100030000C9455000C9455000C9455000C945500EC
:100040000C9455000C9441010C9455000C945500EF
:100050000C9455000C9455000C9455000C945500CC
:100060000C9455000C9455000C9455000C945500BC
:1000700011241FBECFEFD4E0DEBFCDBF12E0A0E061
:10008000B1E0ECECF4E102C005900D92A432B107AE
:10009000D9F722E0A4E2B2E001C01D92A534B20774
:1000A000E1F70E949A010C94640A0C9400008D9A66
:1000B0008EB5887F8EBD8EB581608EBD8FB58E7FEB
:1000C0008FBD8FB58D7F8FBD8EB588608EBD8EB58F
:1000D0008F7E8EBD8FB58F778FBD8FB580648FBDBE
:1000E00081E090E09BBD8ABD0895FF920F931F931E
:1000F000CF93DF93082F60E074E00E94640510E066
:10010000101611065CF4C0E0D0E080E094E00E949C
:100110006805F82E2196C017D107B9F78F2DDF910A
:10012000CF911F910F91FF900895CF92DF92EF92A0
:10013000FF921F93CF93DF936C01FC01C081D181AB
:100140006C2F6295660F607E42E380EE0E94FB0199
:10015000CE0196958795969587959695879561E3B7
:100160000E94C40145E3F60162818FE00E94FB0119
:10017000F60182818823A9F07601F3E0EF0EF11CED
:1001800016E3C0E0D0E0612FF70181917F010E946A
:10019000C40121961F5FF601828190E0C817D9073C
:1001A00094F340E050E060E070E081E090E00E9475
:1001B000D801DF91CF911F91FF90EF90DF90CF900A
:1001C0000895F8944BE26FEF83E00E94FB018A9858
:1001D00085B7826085BF85B78E7F85BF8BB780640A
:1001E0008BBF78940895CF93C82F0E941D020E9460
:1001F000E1004FE06C2F80EE0E94FB01CF9108954B
:100200001F920F920FB60F9211242F933F934F938B
:100210005F936F937F938F939F93AF93BF93CF938E
:10022000EF93FF938CE20E94B201C82F80FF07C0BA
:1002300081E0809325024CE260E00E94FB01C1FF57
:1002400008C081E0809324024CE260E082E00E94DA
:10025000FB01FF91EF91CF91BF91AF919F918F9152
:100260007F916F915F914F913F912F910F900FBEB2
:100270000F901F90189582E889BF12BE85E083BF5A
:1002800008951F920F920FB60F9211248F939F9390
:1002900081E090E0909327028093260212BE9F9106
:1002A0008F910F900FBE0F901F901895809126028E
:1002B00090912702892BA1F1809128029091290227
:1002C000892B31F181E090E00E94400482E090E0CF
:1002D0000E944004109227021092260280912A0266
:1002E00090912B02019690932B0280932A02809189
:1002F0002A0290912B029F938F9386E091E09F9327
:100300008F930E9433070F900F900F900F900895D6
:1003100089E191E00E94490710922702109226027B
:10032000089581E090E090932902809328020E9432
:100330003B0108958FE190E00E944D050E945A050F
:100340000E9457000E94470280E00E94F3000E9432
:10035000DB048FE291E00E9449070E9491010E9414
:100360005601FDCFCF93C82F0E94400583E00E9425
:1003700036058C2F0E9436050E943A05C82F0E9430
:1003800042058C2FCF910895CF93DF93C82FD62F9E
:100390000E94400582E00E9436058D2F0E9436059E
:1003A0008C2F0E9436050E944205DF91CF9108955F
:1003B000EF92FF920F931F93CF93DF937C018B01FA
:1003C000EA010E944005EF2819F081E80E943605F5
:1003D000012B19F082E80E943605CD2B19F084E834
:1003E0000E9436050E944205DF91CF911F910F9127
:1003F000FF90EF9008951F93CF93DF93D82FC62FD0
:10040000142F0E94400585E00E943605812F0E942E
:1004100036058D2F0E9436058C2F0E9436050E94CE
:100420004205DF91CF911F9108950E94400580EC15
:100430000E9436050E94420508950E942B050E94E5
:1004400015028EE00E94B201982F907E903871F0D4
:100450001F928F9387E591E09F938F930E943307BC
:100460000F900F900F900F9081E0089548E265E89B
:1004700087EC0E94FB0149E261EB8FEF0E94FB01D8
:100480004AE263EC8FEF0E94FB0180E0089581E077
:100490000E94750090E0909331028093300282E0D8
:1004A0000E94750090E0909337028093360287B3E4
:1004B000887F87BB0895CF92DF92EF92FF9281E011
:1004C0000E947500F82E82E00E9475004F2D50E0CA
:1004D00060E070E0C82ED12CE12CF12C809130022C
:1004E00090913102092E000CAA0BBB0B481759073B
:1004F0006A077B072CF18091300290913102E091E4
:100500003002F0913102092E000CAA0BBB0B9A01AC
:10051000AB01281B390B4A0B5B0BA4E6B0E00E9431
:100520009A052FEF30E02E1B3F0B032E000C440BDF
:10053000550B0E946C05309333022093320220C089
:100540008091300290913102E0913002F0913102BD
:10055000092E000CAA0BBB0B9A01AB01281B390B0F
:100560004A0B5B0BA4E6B0E00E949A059F01FF0FC7
:10057000440B550B0E946C053093330220933202DA
:100580008091360290913702092E000CAA0BBB0B0A
:10059000C816D906EA06FB062CF180913602909126
:1005A0003702E0913602F0913702092E000CAA0BB7
:1005B000BB0BA7019601281B390B4A0B5B0BA4E66A
:1005C000B0E00E949A052FEF30E02E1B3F0B032E68
:1005D000000C440B550B0E946C053093390220939C
:1005E000380220C08091360290913702E0913602A5
:1005F000F0913702092E000CAA0BBB0BA701960144
:10060000281B390B4A0B5B0BA4E6B0E00E949A054D
:100610009F01FF0F440B550B0E946C05309339026C
:1006200020933802FF90EF90DF90CF900895CF9203
:10063000DF92EF92FF92CF93DF9383E00E947500E9
:10064000D82F84E00E947500C82F2D2F30E0A4E63B
:10065000B0E00E948B05C12CD12C7601CA94A70171
:1006600096010E946C0530933502209334022C2FA2
:1006700030E0A4E6B0E00E948B05A70196010E943D
:100680006C0530932F0220932E02DF91CF91FF90C3
:10069000EF90DF90CF9008950E945B02809132022C
:1006A0009091330299231CF49195819591092091A1
:1006B00038023091390233231CF4319521953109E8
:1006C000863491051CF426343105FCF028173907CF
:1006D0006CF48734910554F020913202309133024A
:1006E00081E012161306C4F080E008958217930784
:1006F00074F4273431056CF08091380290913902FE
:100700001816190644F083E0089584E0089585E002
:10071000089585E0089582E00895CF93DF938130B6
:1007200091F018F08230C9F020C08EE891E00E946C
:10073000490786B38695869591E089278170C82FF1
:1007400080E0D82F19C088EA91E00E94490786B35B
:100750008170C82F80E0D82F0FC086EC91E00E94F6
:100760004907C6B3C270D0E007C083EE91E00E9493
:10077000490780E090E00BC0CD2B39F08CEF91E081
:100780000E94490781E090E002C080E090E0DF91A4
:10079000CF910895CF92DF92EF92FF920F931F9324
:1007A000CF93DF93CDB7DEB727970FB6F894DEBFB0
:1007B0000FBECDBF0E945B02C0903202D0903302C8
:1007C000E0903802F090390280E00E948D03182FEB
:1007D000092F0E944C03DA82C982FC82EB822C2D05
:1007E0003A814E2D5C81612F702F90E027960FB6D5
:1007F000F894DEBF0FBECDBFDF91CF911F910F9157
:10080000FF90EF90DF90CF900895CF92DF92EF921C
:10081000FF920F931F93CF93DF93CDB7DEB7289747
:100820000FB6F894DEBF0FBECDBF0E941703E09055
:100830002E02F0902F02C0903402D090350281E059
:100840000E948D03182F092F82E00E948D03DA8207
:10085000C982FC82EB822C2D3A814E2D5C81612F66
:10086000702F28960FB6F894DEBF0FBECDBFDF9174
:10087000CF911F910F91FF90EF90DF90CF9008954F
:10088000CF93DF93CDB7DEB763970FB6F894DEBF93
:100890000FBECDBF9A83898324E02B8381309105DD
:1008A00019F0029761F016C00E94CA032C834D8391
:1008B0006E838F83CE0101960E94950013C00E9423
:1008C00005042C834D836E838F83CE0101960E9495
:1008D000950008C08CE092E09F938F930E943307AD
:1008E0000F900F9063960FB6F894DEBF0FBECDBF8A
:1008F000DF91CF910895CF93DF931F92CDB7DEB7ED
:100900008983898160E072E10E9464050F90DF9124
:10091000CF910895CF93DF931F92CDB7DEB7898330
:10092000898160E070E10E9464050F90DF91CF91B2
:100930000895CF9384FBCC27C0F981700E948A046C
:1009400080E18C0F0E948A04CF910895CF93C82F25
:1009500080EB8C0F0E948A048C2F90E090932D02E4
:1009600080932C02CF91089580E00E94A60480E03D
:100970000E94990410922D0210922C020895CF9398
:10098000DF930E94A604C0E8D0E080E00E947B04D0
:100990002197D9F7DF91CF910895CF930E94B404A6
:1009A000C0E08C2F0E94BF04CF5FC830D1F70E94F7
:1009B000B404CF9108958EEA0E948A0481EA0E94CD
:1009C0008A048AED0E948A0482E10E948A0488ECEB
:1009D0000E948A0488EA0E948A048FE30E948A04A3
:1009E00085ED0E948A0480E80E948A0481E80E94C2
:1009F0008A0480E50E948A0489ED0E948A0481E2CB
:100A00000E948A0480E20E948A0482E00E948A0492
:100A10008BED0E948A0480E30E948A048DEA0E9482
:100A20008A0480E00E948A0484EA0E948A0486EA9A
:100A30000E948A048FEA0E948A0480EB0E948A0442
:100A400080E00E948A0480E10E948A040E94CD0412
:100A500010923A02089587B3806B87BBBE988DB120
:100A600081658DB969986B986A9808958FB9779B5D
:100A7000FECF08958FEF8FB9779BFECF8FB108958A
:100A8000C4980895C49A08955D9BFECF8CB90895CB
:100A90005F9BFECF5F9A8CB1089590BD89B988E1C4
:100AA0008AB98EE880BD68E475E084E495E00E9430
:100AB000E806089585B7806885BF80B7877C80BFCA
:100AC00080B7806280BF0895FB01F05F8083089546
:100AD000905FFC0180810895052E97FB1EF4009421
:100AE0000E94830557FD07D00E94A50507FC03D08F
:100AF0004EF40C94830550954095309521953F4FC9
:100B00004F4F5F4F089590958095709561957F4FF9
:100B10008F4F9F4F0895A29FB001B39FC001A39F25
:100B2000700D811D1124911DB29F700D811D112426
:100B3000911D08950E948B05A59F900DB49F900D67
:100B4000A49F800D911D11240895A1E21A2EAA1BC5
:100B5000BB1BFD010DC0AA1FBB1FEE1FFF1FA2176D
:100B6000B307E407F50720F0A21BB30BE40BF50B6A
:100B7000661F771F881F991F1A9469F760957095F3
:100B8000809590959B01AC01BD01CF0108950F9315
:100B90001F93CF93DF938230910510F482E090E0B1
:100BA000E0913D02F0913E0220E030E0A0E0B0E0B4
:100BB000309719F1408151810281138148175907FB
:100BC000C8F08417950769F4109731F012960C93CA
:100BD000129713961C9327C000933D0210933E0278
:100BE00022C02115310519F04217530718F49A0154
:100BF000BD01EF01DF01F801DBCF21153105F9F06F
:100C0000281B390B2430310580F48A819B816115C2
:100C1000710521F0FB019383828304C090933E020F
:100C200080933D02FE01329644C0FE01E20FF31FA5
:100C30008193919322503109398328833AC02091BE
:100C40003B0230913C02232B41F420910201309170
:100C5000030130933C0220933B022091000130912C
:100C600001012115310541F42DB73EB74091040132
:100C700050910501241B350BE0913B02F0913C02A1
:100C8000E217F307A0F42E1B3F0B2817390778F063
:100C9000AC014E5F5F4F2417350748F04E0F5F1FC2
:100CA00050933C0240933B028193919302C0E0E059
:100CB000F0E0CF01DF91CF911F910F910895CF9375
:100CC000DF93009709F481C0FC01329713821282EE
:100CD000A0913D02B0913E02109781F420813181B4
:100CE000820F931F20913B0230913C022817390755
:100CF00051F5F0933C02E0933B0267C0ED0120E028
:100D000030E0CE17DF0740F44A815B819E01411538
:100D10005105F1F0EA01F5CFD383C28340815181BF
:100D2000840F951FC817D90759F488819981840FBA
:100D3000951F0296918380838A819B81938382830E
:100D40002115310529F4F0933E02E0933D023DC0A8
:100D5000E901FB83EA8349915991C40FD51FEC1730
:100D6000FD0761F480819181840F951F0296E9014E
:100D700099838883828193819B838A83E0E0F0E07A
:100D800012968D919C911397009719F0FD01DC014B
:100D9000F7CF8D919C9111979D012E5F3F4F820F50
:100DA000931F20913B0230913C022817390769F4C8
:100DB000309729F410923E0210923D0202C0138235
:100DC0001282B0933C02A0933B02DF91CF91089531
:100DD0000F931F93CF93DF93009731F46115710543
:100DE00019F480E090E03AC08B01EC016EE070E015
:100DF00081E090E00E945A09FC01892B91F380E880
:100E000083830115110571F01387028781E88383BD
:100E100080913F0290914002892B21F4F09340028F
:100E2000E0933F022097C9F0D187C0878381826019
:100E300083838091410290914202892B71F4F09357
:100E40004202E09341028091430290914402892B37
:100E500021F4F0934402E0934302CF01DF91CF915C
:100E60001F910F910895A0E0B0E0E9E3F7E00C9442
:100E70003D0AAE014B5F5F4FFA0161917191AF0185
:100E800080914102909142020E947907E2E00C9425
:100E9000590A0F931F93CF93DF93E0914102F09192
:100EA0004202238121FF1BC08C01D0E0C0E0F80189
:100EB00081918F016091410270914202DB0118968D
:100EC000ED91FC911997882331F00995892B79F3DD
:100ED000DFEFCFEFECCF8AE00995892B19F08FEF88
:100EE0009FEF02C08D2F9C2FDF91CF911F910F910B
:100EF0000895ABE0B0E0EFE7F7E00C942D0A6C0149
:100F00007B018A01FC0117821682838181FFCCC19B
:100F1000CE0101963C01F6019381F70193FD859185
:100F200093FF81917F01882309F4BAC1853239F496
:100F300093FD859193FF81917F01853229F4B6015C
:100F400090E00E949309E7CF912C212C312CFFE1F6
:100F5000F315D8F08B3279F038F4803279F083329F
:100F6000A1F4232D20611DC08D3261F0803369F41E
:100F7000232D216016C0832D8260382EE32DE4607E
:100F80003E2E2AC0F32DF8601DC037FC2DC020ED89
:100F9000280F2A3040F08E32B9F436FC81C1232D5F
:100FA0002064322E19C036FE06C08AE0989E200DBD
:100FB0001124922E11C0EAE02E9E200D1124222E23
:100FC000F32DF0623F2E08C08C3621F4832D80680B
:100FD000382E02C0883641F4F70193FD859193FFC6
:100FE00081917F018111B3CF982F9F7D95549330CC
:100FF00028F40C5F1F4F9FE399830DC0833631F0B7
:10100000833771F0833509F059C021C0F801808120
:1010100089830E5F1F4F88248394912C530113C042
:101020002801F2E04F0E511CF801A080B18036FE7D
:1010300003C0692D70E002C06FEF7FEFC5010E9411
:1010400088094C018201F32DFF773F2E16C028013D
:1010500022E0420E511CF801A080B18036FE03C090
:10106000692D70E002C06FEF7FEFC5010E94760925
:101070004C01F32DF0683F2E820133FC1BC0822D02
:1010800090E088169906B0F4B60180E290E00E94E4
:1010900093092A94F4CFF50137FC859137FE8191AD
:1010A0005F01B60190E00E94930921102A9421E08B
:1010B000821A91088114910471F7E8C0843611F006
:1010C000893641F5F80137FE07C060817181828160
:1010D00093810C5F1F4F08C060817181072E000C47
:1010E000880B990B0E5F1F4FF32DFF763F2E97FF56
:1010F00009C090958095709561957F4F8F4F9F4F58
:10110000F0683F2E2AE030E0A3010E94CF09882E2C
:10111000861845C0853731F4232D2F7EB22E2AE064
:1011200030E025C0932D997FB92E8F36C1F018F489
:10113000883579F0B5C0803719F0883721F0B0C014
:10114000E92FE061BE2EB4FE0DC0FB2DF460BF2E72
:1011500009C034FE0AC0292F2660B22E06C028E03E
:1011600030E005C020E130E002C020E132E0F801CB
:10117000B7FE07C060817181828193810C5F1F4F30
:1011800006C06081718180E090E00E5F1F4FA30177
:101190000E94CF09882E8618FB2DFF773F2E36FE42
:1011A0000DC0232D2E7FA22E891458F434FE0BC0BF
:1011B00032FC09C0832D8E7EA82E05C0B82CA32C2E
:1011C00003C0B82C01C0B92CA4FE0FC0FE01E80D6D
:1011D000F11D8081803321F49A2D997EA92E09C0BA
:1011E000A2FE06C0B394B39404C08A2D867809F099
:1011F000B394A3FC11C0A0FE06C0B21488F4280C5E
:10120000922C9B180EC0B21460F4B60180E290E0FC
:101210000E949309B394F7CFB21418F42B1802C0AC
:10122000982C212CA4FE10C0B60180E390E00E940F
:101230009309A2FE17C0A1FC03C088E790E002C09A
:1012400088E590E0B6010CC08A2D867859F0A1FEA1
:1012500002C08BE201C080E2A7FC8DE2B60190E003
:101260000E949309891438F4B60180E390E00E944B
:1012700093099A94F7CF8A94F301E80DF11D8081C8
:10128000B60190E00E9493098110F5CF222009F465
:1012900042CEB60180E290E00E9493092A94F6CFF4
:1012A000F6018681978102C08FEF9FEF2B96E2E1D6
:1012B0000C94490A0F931F93CF93DF93869F80016D
:1012C000879F100D969F100D1124C8010E94C7051D
:1012D000EC01009729F0A80160E070E00E9481090C
:1012E000CE01DF91CF911F910F910895FC010590E0
:1012F000615070400110D8F7809590958E0F9F1F18
:101300000895DC0101C06D9341505040E0F708950D
:10131000FC016150704001900110D8F780959095C4
:101320008E0F9F1F08950F931F93CF93DF93FB01A1
:10133000238121FD03C08FEF9FEF2CC022FF16C039
:1013400046815781248135814217530744F4A08197
:10135000B1819D012F5F3F4F318320838C93268184
:1013600037812F5F3F4F3783268314C08B01EC01F9
:10137000FB010084F185E02D0995892BE1F6D80168
:1013800016968D919C911797019617969C938E9324
:101390001697CE01DF91CF911F910F910895FA0119
:1013A000AA27283051F1203181F1E8946F936E7FA4
:1013B0006E5F7F4F8F4F9F4FAF4FB1E03ED0B4E095
:1013C0003CD0670F781F891F9A1FA11D680F791FD6
:1013D0008A1F911DA11D6A0F711D811D911DA11DE7
:1013E00020D009F468943F912AE0269F11243019F7
:1013F000305D3193DEF6CF010895462F4770405D92
:101400004193B3E00FD0C9F7F6CF462F4F70405D40
:101410004A3318F0495D31FD4052419302D0A9F79B
:10142000EACFB4E0A6959795879577956795BA9595
:10143000C9F700976105710508959B01AC010A2E5B
:1014400006945795479537952795BA95C9F7620F32
:10145000731F841F951FA01D08952F923F924F92D6
:101460005F926F927F928F929F92AF92BF92CF9234
:10147000DF92EF92FF920F931F93CF93DF93CDB73D
:10148000DEB7CA1BDB0B0FB6F894DEBF0FBECDBFB5
:1014900009942A88398848885F846E847D848C8486
:1014A0009B84AA84B984C884DF80EE80FD800C818F
:1014B0001B81AA81B981CE0FD11D0FB6F894DEBF72
:0C14C0000FBECDBFED010895F894FFCFE2
:1014CC0000004502200053656E64742067616E67EE
:1014DC0065723A2025640D0A0047616D65206861CC
:1014EC0073206E6F7420737461727465640D0023C5
:1014FC0023232323232323205374617274696E677F
:10150C00206E65772073657373696F6E20232323B8
:10151C0023232323230D004D4350323531352069CD
:10152C0073204E4F5420696E20636F6E6669677529
:10153C00726174696F6E206D6F646520616674658D
:10154C00722072657365743A2025780D0A00526515
:10155C006164696E67206A6F79737469636B20626A
:10156C007574746F6E3A0D0052656164696E672014
:10157C00726967687420736C696465722062757433
:10158C00746F6E3A0D0052656164696E67206C650C
:10159C00667420736C6964657220627574746F6E06
:1015AC003A0D00496E76616C696420627574746FD3
:1015BC006E2073656C65637465640D00427574749C
:1015CC006F6E20707265737365640D00496E766181
:1015DC006C69642043414E206D65737361676520AF
:0415EC00494400006E
:00000001FF
