S00D00004E4F4445312E73726563C0
S11300000C9460030C9413050C947D030C947D03F1
S11300100C947D030C947D030C947D030C947D035C
S11300200C947D030C947D030C947D030C947D034C
S11300300C947D030C947D030C947D030C947D033C
S11300400C947D030C9469050C947D030C947D033E
S11300500C947D030C947D030C947D030C947D031C
S11300600C947D030C947D030C947D030C947D030C
S113007000000000005C00000C000C007C287C28C0
S113008058DC68002410480028542840000C000064
S1130090007884008478000054385400107C1000E8
S11300A080400000101010000040000060100C00A0
S11300B038543800487C40004864580044542C00AC
S11300C01C107C005C5424003854240064140C007C
S11300D068542C0048543800004800008048000050
S11300E0102844002828280044281000045408003C
S11300F038445C00781478007C5428003844280084
S11301007C4438007C5444007C140400384474005B
S11301107C107C00447C440020403C007C106C003B
S11301207C4040007C187C0078103C003844380047
S11301307C1408003844B8007C1468004854240037
S1130140047C04007C407C003C603C007C307C00EF
S11301506C106C000C700C0064544C00007C440067
S11301600C106000447C00000804080080808000BB
S113017000040800304878007C48300030484800CB
S113018030487C00306850001078140090A8780043
S11301907C08700050744000808074007C106800FB
S11301A0447C4000781078007808700030483000B3
S11301B0F82810003048F80078100800505828003B
S11301C0083C4800384078003840380078207800EF
S11301D04830480098A07800486858001078840097
S11301E0007C00008478100008040804000000006B
S11301F00000005F00000007000700147F147F1454
S1130200242A7F2A12231308646236495522500097
S113021005030000001C2241000041221C00082AA2
S11302201C2A0808083E0808005030000008080886
S11302300808006060000020100804023E5149458F
S11302403E00427F400042615149462141454B31C5
S11302501814127F1027454545393C4A4949300155
S1130260710905033649494936064949291E0036AC
S113027036000000563600000008142241141414FD
S1130280141441221408000201510906324979412B
S11302903E7E1111117E7F494949363E414141223A
S11302A07F4141221C7F494949417F090901013E9F
S11302B0414151327F0808087F00417F41002040BE
S11302C0413F017F081422417F404040407F0204A7
S11302D0027F7F0408107F3E4141413E7F090909A6
S11302E0063E4151215E7F09192946464949493153
S11302F001017F01013F4040403F1F2040201F7FFC
S11303002018207F631408146303047804036151E4
S113031049454300007F4141020408102041417FC8
S11303200000040201020440404040400001020475
S11303300020545454787F4844443838444444207A
S1130340384444487F3854545418087E090102083C
S11303501454543C7F0804047800447D4000204039
S1130360443D00007F10284400417F40007C041875
S113037004787C0804047838444444387C14141405
S113038008081414187C7C080404084854545420A5
S1130390043F4440203C4040207C1C2040201C3C26
S11303A04030403C44281028440C5050503C446495
S11303B0544C44000836410000007F0000004136E0
S11303C00800020103020100000000000000000018
S11303D0065F5F060000000007070007070000141F
S11303E07F7F147F7F1400242E6B6B3A120000462B
S11303F06630180C666200307A4F5D377A48000424
S113040007030000000000001C3E634100000000E0
S113041041633E1C000000082A3E1C1C3E2A0808BA
S1130420083E3E0808000000A0E06000000000084C
S11304300808080808000000006060000000006070
S113044030180C060301003E7F594D7F3E000042E8
S1130450427F7F40400000627359496F660000226A
S11304606349497F360000181C16137F7F1000274C
S11304706745457D3900003C7E4B497930000003D7
S11304806371190F070000367F49497F3600000663
S11304904F49693F1E000000006C6C000000000022
S11304A0A0EC6C00000000081C366341000000143E
S11304B014141414140000004163361C08000002D4
S11304C00351590F0600003E7F415D5D1F1E007CF5
S11304D07E13137E7C0000417F7F49497F36001CD8
S11304E03E634141632200417F7F41637F1C0041A1
S11304F07F7F495D416300417F7F491D0103001CEB
S11305003E6341517372007F7F08087F7F000000C3
S1130510417F7F41000000307040417F3F01004136
S11305207F7F081C776300417F7F41406070007FBC
S11305307F060C067F7F007F7F060C187F7F001CE0
S11305403E6341633E1C00417F7F49090F06001E44
S11305503F21717F5E0000417F7F19396F4600267D
S1130560674D597B32000003417F7F410300007FC8
S11305707F40407F7F00001F3F60603F1F00007F7F
S11305807F3018307F7F0063771C081C7763000777
S11305904F78784F0700006773594D476371000027
S11305A07F7F41410000000103060C183060000009
S11305B041417F7F000000080C0603060C08008000
S11305C08080808080808000000307040000002079
S11305D07454543C784000413F7F44447C38003894
S11305E07C44446C280000307848493F7F40003800
S11305F07C54545C180000487E7F49030200009834
S1130600BCA4A4F87C0400417F7F08047C7800002B
S1130610447D7D4000000040C484FD7D0000004115
S11306207F7F10386C440000417F7F400000007CD5
S11306307C0C180C7C78007C7C04047C78000038EA
S11306407C44447C38000084FCF8A4243C18001842
S11306503C24A4F8FC8400447C78441C1800004822
S11306605C54547424000000043E7F442400003C85
S11306707C40403C7C40001C3C60603C1C00003CD6
S11306807C6030607C3C00446C3810386C44009CC6
S1130690BCA0A0FC7C00004C64745C4C64000008AA
S11306A0083E7741410000000000777700000041D8
S11306B041773E0808000002030103020301000021
S11306C011241FBECFEFD4E0DEBFCDBF12E0A0E007
S11306D0B1E0E0EBF4E202C005900D92A43FB10753
S11306E0D9F723E0A4EFB2E001C01D92AB32B20708
S11306F0E1F70E9491050C9456120C9400008D9A17
S11307008EB5887F8EBD8EB581608EBD8FB58E7F90
S11307108FBD8FB58D7F8FBD8EB588608EBD8EB534
S11307208F7E8EBD8FB58F778FBD8FB580648FBD63
S113073081E090E09BBD8ABD0895FF920F931F93C3
S1130740CF93DF93082F60E074E00E94640D10E003
S1130750101611065CF4C0E0D0E080E094E00E9442
S1130760680DF82E2196C017D107B9F78F2DDF91A8
S1130770CF911F910F91FF900895CF92DF92EF9246
S1130780FF921F93CF93DF936C01FC01C081D18151
S11307906C2F6295660F607E42E380EE0E940E0627
S11307A0CE0196958795969587959695879561E35D
S11307B00E94D70545E3F60162818FE00E940E0690
S11307C0F60182818823A9F07601F3E0EF0EF11C93
S11307D016E3C0E0D0E0612FF70181917F010E9410
S11307E0D70521961F5FF601828190E0C817D907CB
S11307F094F340E050E060E070E081E090E00E941B
S1130800EB05DF91CF911F91FF90EF90DF90CF9098
S11308100895CF92DF92FF920F931F93CF93DF93AC
S1130820EC018091F502882309F441C085E60E9419
S1130830C5058F708A838823C1F06E0183E0C80EDA
S1130840D11C0F2EF6E6FF2EF02D00E010E08F2DC8
S11308500E94C505F60181936F010F5F1F4FF3944A
S11308608A8190E00817190794F381E60E94C50570
S1130870182F82E60E94C505807E90E095958795A5
S1130880959587959595879595958795959587954C
S1130890212F30E0220F331F220F331F220F331F6B
S11308A0822B932B998388831092F50252C08091F6
S11308B0F402882309F44DC085E70E94C5058F70B2
S11308C08A838823C1F06E01F3E0CF0ED11C0F2E72
S11308D0F6E7FF2EF02D00E010E08F2D0E94C505F5
S11308E0F60181936F010F5F1F4FF3948A8190E0AB
S11308F00817190794F381E70E94C505182F82E7AA
S11309000E94C505807E90E095958795959587957D
S1130910959587959595879595958795212F30E0A1
S1130920220F331F220F331F220F331F822B932BCF
S1130930998388831092F4028B811F928F9386E0AF
S113094091E09F938F930E94330F0F900F900F901D
S11309500F90DF91CF911F910F91FF90DF90CF9077
S11309600895F8948A9885B7826085BF85B78E7F8D
S113097085BF8BB780648BBF4BE26FEF83E00E942F
S11309800E0678940895CF93C82F0E9430060E94D3
S1130990B1044FE06C2F80EE0E940E06CF910895B3
S11309A0CF93DF93CDB7DEB72B970FB6F894DEBFA6
S11309B00FBECDBF8091F502811104C08091F40275
S11309C0882321F0CE0101960E94090489819A812D
S11309D0049701F58EE191E09F938F930E94330F6A
S11309E020911103309112038C8190E00F900F90AD
S11309F02817390724F49093100380930F038D81F3
S1130A0090E0909312038093110383E00E945905B0
S1130A100E9465052B960FB6F894DEBF0FBECDBFBE
S1130A20DF91CF9108951F920F920FB60F92112468
S1130A302F933F934F935F936F937F938F939F93E2
S1130A40AF93BF93CF93EF93FF938CE20E94C505BE
S1130A50C82F80FF07C081E08093F5024CE260E07C
S1130A600E940E06C1FF08C081E08093F4024CE2AC
S1130A7060E082E00E940E060E94D004FF91EF9194
S1130A80CF91BF91AF919F918F917F916F915F9122
S1130A904F913F912F910F900FBE0F901F9018957B
S1130AA060910F03709110038091110390911203D0
S1130AB008958093F60208958091F602089582E8DD
S1130AC089BF12BE85E083BF089589B78D7789BF3A
S1130AD008951F920F920FB60F9211248F939F9334
S1130AE081E090E09093F8028093F70212BE9F9108
S1130AF08F910F900FBE0F901F9018958091F70261
S1130B009091F802892B61F081E090E00E948E0BB5
S1130B1082E090E00E948E0B1092F8021092F7028D
S1130B2008958FE190E00E944D0D0E945A0D0E949D
S1130B307F030E94B10980E00E94C3048AE391E02C
S1130B409F938F930E94330F80E00E9459050F906A
S1130B500F900E945C05813079F028F0823049F0D2
S1130B60833069F0F6CF0E94200882E00E94590584
S1130B70F0CF0E942309EDCF0E947E05EACF0E94A8
S1130B80C90782E00E945905E4CFCF93C82F0E9481
S1130B90400D83E00E94360D8C2F0E94360D0E947A
S1130BA03A0DC82F0E94420D8C2FCF910895CF93F8
S1130BB0DF93C82FD62F0E94400D82E00E94360D8D
S1130BC08D2F0E94360D8C2F0E94360D0E94420DEF
S1130BD0DF91CF910895EF92FF920F931F93CF93DC
S1130BE0DF937C018B01EA010E94400DEF2819F08C
S1130BF081E80E94360D012B19F082E80E94360D1F
S1130C00CD2B19F084E80E94360D0E94420DDF912D
S1130C10CF911F910F91FF90EF9008951F93CF9361
S1130C20DF93D82FC62F142F0E94400D85E00E9419
S1130C30360D812F0E94360D8D2F0E94360D8C2F7C
S1130C400E94360D0E94420DDF91CF911F910895AD
S1130C500E94400D80EC0E94360D0E94420D0895C2
S1130C600E942B0D0E9428068EE00E94C505982F35
S1130C70907E903871F01F928F9383E691E09F935A
S1130C808F930E94330F0F900F900F900F9081E07D
S1130C90089548E265E887EC0E940E0649E261EB9C
S1130CA08FEF0E940E064AE263EC8FEF0E940E065D
S1130CB080E008950895AF92BF92CF92DF92EF92B1
S1130CC0FF920F931F93CF93DF93CDB7DEB7A09717
S1130CD00FB6F894DEBF0FBECDBF0E945005D62ECE
S1130CE0C72EF82EE92E7F936F938AE991E09F93A4
S1130CF08F93CE0101965C019F938F930E94490FBD
S1130D00EF92FF9288EA91E09F938F938E010F5E9A
S1130D101F4F1F930F930E94490F60E080E00E94D1
S1130D20890CC5010E94E70CCF92DF9284EB91E01D
S1130D309F938F930E94330F60E081E00E94890C9F
S1130D40C8010E94E70CEF92FF9285EC91E09F931B
S1130D508F930E94330F0FB6F894DEBF0FBECDBF42
S1130D60A0960FB6F894DEBF0FBECDBFDF91CF9132
S1130D701F910F91FF90EF90DF90CF90BF90AF90B5
S1130D800895CF93DF93CDB7DEB72B970FB6F894C2
S1130D90DEBF0FBECDBF9A8389838530910531F0C4
S1130DA086309105C9F0039719F50EC082E08B8354
S1130DB0E5E1F3E0808191818C8382818D83CE0192
S1130DC001960E94BD031CC081E08B838C83CE01FD
S1130DD001960E94BD0314C081E08B838091F902C7
S1130DE09091FA028C83CE0101960E94BD0308C043
S1130DF084E092E09F938F930E94330F0F900F90A3
S1130E002B960FB6F894DEBF0FBECDBFDF91CF9106
S1130E10089563E082E00E94890C8091130390910D
S1130E201403E091FF02F0910003EE0FFF1FE80F9F
S1130E30F91F0580F681E02D80818130A9F028F02A
S1130E40823009F1833071F108958BE192E00E94C0
S1130E50E70C81E090E09093FA028093F90286E037
S1130E6090E00E94C106089584E392E00E94E70C9A
S1130E7082E090E09093FA028093F90286E090E099
S1130E800E94C10608958FE492E00E94E70C83E07B
S1130E9090E09093FA028093F90286E090E00E9439
S1130EA0C10608958CE692E00E94E70C84E090E08D
S1130EB09093FA028093F90286E090E00E94C106C2
S1130EC0089588E892E00E94E70C81E00E945905A9
S1130ED00E942B0C0E945F0583E090E00E94C106F3
S1130EE00895CF92DF92EF92FF921F93CF93DF93F7
S1130EF0EC016B017A01122F8BE190E00E94C70D87
S1130F00DC011296DC92CE9211975696DC93CE9326
S1130F1055975A961C921E9259975896FC92EE92A7
S1130F2057971C93FC0135969C012B5E3F4F119201
S1130F301192E217F307D9F78D819E81892B49F02D
S1130F40FE01379621E030E041915191452B91F417
S1130F5002C020E030E0220F331FFE01E20FF31F36
S1130F60B683A583898D9A8D01969A8F898F8A2F4E
S1130F709B2F07C02F5F3F4F2830310529F780E0B2
S1130F8090E0DF91CF911F91FF90EF90DF90CF9091
S1130F900895CF93DF930E942B0CC0E0D0E0E09142
S1130FA01303F0911403CE01880F991FE80FF91F62
S1130FB085819681892BE1F160E08C2F0E94890C58
S1130FC08091FF02909100038C179D07E9F485E955
S1130FD092E00E94E70C60E08C2F0E94190D84E9D6
S1130FE092E00E94E70CE0911303F0911403CE0108
S1130FF0880F991FE80FF91F0580F681E02D818184
S113100092810E94E70C14C085E992E00E94E70CEB
S1131010E0911303F0911403CE01880F991FE80F98
S1131020F91F0580F681E02D818192810E94E70CF1
S11310302196C830D10509F0B2CFDF91CF91089540
S1131040EF92FF920F931F93CF93DF930E94390C7B
S113105028E040E050E067E972E080E090E00E9420
S11310607107EC01909314038093130328E041E685
S113107057E061EA72E00E94710728E040E050E026
S11310806CEA72E0CE010E9471078C0128E040E016
S113109050E067EB72E0CE010E9471077C0128E00A
S11310A040E050E061EC72E0CE010E94710728E05C
S11310B040E050E067EC72E0CE010E94710720E04E
S11310C049E057E061ED72E0C8010E94710721E038
S11310D049E057E066ED72E0C8010E94710722E022
S11310E049E057E06DED72E0C8010E94710723E00A
S11310F049E057E062EE72E0C8010E94710724E003
S11311004BE556E069EE72E0C7010E94710725E0E5
S11311104AE556E06DEE72E0C7010E947107E5E111
S1131120F3E083E082838AE090E0918380830E94ED
S1131130C907DF91CF911F910F91FF90EF90089510
S1131140813009F44FC0A0F18230F1F0833009F00E
S113115079C0E0911303F0911403818D928D209155
S1131160FF02309100030197281739070CF06AC079
S11311708091FF0290910003019690930003809365
S1131180FF020E94C90708958091FF029091000315
S1131190181619060CF056C08091FF0290910003B6
S11311A00197909300038093FF020E94C90708955A
S11311B0E0911303F091140385899689892B09F42E
S11311C041C0858996899093140380931303809179
S11311D0FD029091FE02909300038093FF020E940F
S11311E0C90708958091130390911403E091FF02BD
S11311F0F0910003EE0FFF1FE80FF91F0580F68141
S1131200E02D218D328D232BE9F02091FF023091C6
S11312100003220F331FFC01E20FF31F8581968127
S113122090931403809313038091FF029091000321
S11312309093FE028093FD02109200031092FF022D
S11312400E94C90708950E94180B20931803309335
S1131250190340931A0350931B0360931C03709368
S11312601D0380931E0380911E03823009F44FC036
S113127038F4882309F459C0813009F464C008950E
S11312808330B9F1843009F06BC080E00E94F70A22
S1131290892B41F18091130390911403E091FF0293
S11312A0F0910003EE0FFF1FE80FF91F0580F68190
S11312B0E02D8789908D892BA9F00E942B0C8091B9
S11312C0130390911403E091FF02F0910003EE0FD9
S11312D0FF1FE80FF91F0580F681E02D0788F08DC8
S11312E0E02D099581E090E09093FC028093FB024D
S11312F008958091FB029091FC02892B89F183E08F
S11313000E94A0081092FC021092FB0208958091A2
S1131310FB029091FC02892B19F182E00E94A00843
S11313201092FC021092FB0208958091FB029091AE
S1131330FC02892BA9F080E00E94A0081092FC0214
S11313401092FB0208958091FB029091FC02892B7C
S113135039F081E00E94A0081092FC021092FB0276
S1131360089581E00E949D0390E09093060380938A
S1131370050382E00E949D0390E090930C03809308
S11313800B0387B3887F87BB0895CF92DF92EF92D8
S1131390FF9281E00E949D03F82E82E00E949D034B
S11313A04F2D50E060E070E0C82ED12CE12CF12CE0
S11313B08091050390910603092E000CAA0BBB0B28
S11313C0481759076A077B072CF180910503909110
S11313D00603E0910503F0910603092E000CAA0B05
S11313E0BB0B9A01AB01281B390B4A0B5B0BA4E620
S11313F0B0E00E949A0D2FEF30E02E1B3F0B032E1E
S1131400000C440B550B0E946C0D30930803209381
S1131410070320C08091050390910603E091050322
S1131420F0910603092E000CAA0BBB0B9A01AB0129
S1131430281B390B4A0B5B0BA4E6B0E00E949A0D03
S11314409F01FF0F440B550B0E946C0D3093080352
S11314502093070380910B0390910C03092E000C39
S1131460AA0BBB0BC816D906EA06FB062CF1809121
S11314700B0390910C03E0910B03F0910C03092EE4
S1131480000CAA0BBB0BA7019601281B390B4A0BB6
S11314905B0BA4E6B0E00E949A0D2FEF30E02E1B08
S11314A03F0B032E000C440B550B0E946C0D309324
S11314B00E0320930D0320C080910B0390910C0325
S11314C0E0910B03F0910C03092E000CAA0BBB0B4B
S11314D0A7019601281B390B4A0B5B0BA4E6B0E06D
S11314E00E949A0D9F01FF0F440B550B0E946C0D37
S11314F030930E0320930D03FF90EF90DF90CF9075
S11315000895CF92DF92EF92FF92CF93DF9383E01F
S11315100E949D03D82F84E00E949D03C82F2D2F85
S113152030E0A4E6B0E00E948B0DC12CD12C7601F2
S1131530CA94A70196010E946C0D30930A0320936C
S113154009032C2F30E0A4E6B0E00E948B0DA70124
S113155096010E946C0D3093040320930303DF91E2
S1131560CF91FF90EF90DF90CF9008950E94C5092E
S1131570809107039091080399231CF49195819518
S1131580910920910D0330910E0333231CF43195FE
S113159021953109863491051CF426343105FCF07B
S11315A0281739076CF48734910554F02091070308
S11315B03091080381E012161306C4F080E0089508
S11315C08217930774F4273431056CF080910D036E
S11315D090910E031816190644F083E0089584E0F0
S11315E0089585E0089585E0089582E008958130A6
S11315F069F018F0823079F012C086B3869586952A
S113160091E08927282F217030E00BC086B3282F62
S1131610217030E006C026B3227030E002C020E022
S113162030E081E090E0232B11F480E090E0089515
S1131630CF92DF92EF92FF920F931F93CF93DF939A
S1131640CDB7DEB727970FB6F894DEBF0FBECDBF78
S11316500E94C509C0900703D0900803E0900D03D1
S1131660F0900E0380E00E94F70A182F092F0E94C1
S1131670B60ADA82C982FC82EB822C2D3A814E2D85
S11316805C81612F702F90E027960FB6F894DEBF2F
S11316900FBECDBFDF91CF911F910F91FF90EF90BF
S11316A0DF90CF900895CF92DF92EF92FF920F9345
S11316B01F93CF93DF93CDB7DEB728970FB6F89477
S11316C0DEBF0FBECDBF0E94810AE0900303F090FD
S11316D00403C0900903D0900A0381E00E94F70A32
S11316E0182F092F82E00E94F70ADA82C982FC824D
S11316F0EB822C2D3A814E2D5C81612F702F289620
S11317000FB6F894DEBF0FBECDBFDF91CF911F910E
S11317100F91FF90EF90DF90CF900895CF93DF93D8
S1131720CDB7DEB763970FB6F894DEBF0FBECDBF5B
S11317309A83898324E02B838130910519F00297E1
S1131740A1F026C087ED91E09F938F930E94330F01
S11317500E94180B2C834D836E838F83CE010196D8
S11317600E94BD030F900F901BC087ED91E09F93E3
S11317708F930E94330F0E94530B2C834D836E83EF
S11317808F83CE0101960E94BD030F900F9008C075
S113179084E092E09F938F930E94330F0F900F90F9
S11317A063960FB6F894DEBF0FBECDBFDF91CF9125
S11317B00895CF93DF931F92CDB7DEB789838981D4
S11317C060E072E10E94640D0F90DF91CF91089563
S11317D0CF93DF931F92CDB7DEB78983898160E011
S11317E070E10E94640D0F90DF91CF910895CF9323
S11317F084FBCC27C0F981700E94E80B80E18C0F38
S11318000E94E80BCF910895CF93C82F80EB8C0FE3
S11318100E94E80B8C2F90E09093020380930103C5
S1131820CF91089580E00E94040C80E00E94F70BA1
S113183010920203109201030895CF93DF930E9444
S1131840040CC0E8D0E080E00E94D90B2197D9F7BE
S1131850DF91CF910895CF930E94120CC0E08C2F9A
S11318600E941D0CCF5FC830D1F70E94120CCF919B
S113187008958EEA0E94E80B81EA0E94E80B8AED43
S11318800E94E80B82E10E94E80B88EC0E94E80BBE
S113189088EA0E94E80B8FE30E94E80B85ED0E9422
S11318A0E80B80E80E94E80B81E80E94E80B80E5E1
S11318B00E94E80B89ED0E94E80B81E20E94E80B8C
S11318C080E20E94E80B82E00E94E80B8BED0E940C
S11318D0E80B80E30E94E80B8DEA0E94E80B80E0AD
S11318E00E94E80B84EA0E94E80B86EA0E94E80B57
S11318F08FEA0E94E80B80EB0E94E80B80E00E94D4
S1131900E80B80E10E94E80B0E942B0C109220034C
S11319100895CF93C62F0E94040C8C2F0E94F70BBE
S1131920CF9108950F931F93CF93DF93909120034A
S11319309130B1F058F1923009F044C0C82FD0E092
S1131940CC0FDD1FCC0FDD1FC051D04014E0FE01D1
S113195084910E94D90B115021961111F8CF32C0F5
S1131960C82FD0E0A097CE01880F991F880F991F28
S1131970C80FD91FC451DE4F15E0FE0184910E94A7
S1131980D90B115021961111F8CF1CC0C82FD0E0EB
S11319908E01000F111F000F111F000F111F09539B
S11319A01D4FCC0FDD1FCC0FDD1FCC0FDD1FC1532E
S11319B0DD4FF80184910E94D90B0F5F1F4F0C1764
S11319C01D07B9F7DF91CF911F910F910895EF9201
S11319D0FF920F931F93CF93DF937C0100E010E0FD
S11319E0C0E0D0E019C09E01220F331F220F331F25
S11319F0220F331F2038310534F40E94920C2196B3
S1131A000F5F1F4F09C080910103909102038F5F04
S1131A100E94040CC0E0D0E0F701E00FF11F8081C8
S1131A208111E1CFDF91CF911F910F91FF90EF9042
S1131A3008950E94890C88E10E94D90B88E10E94D4
S1131A40D90B8EE70E94D90B8CE30E94D90B88E155
S1131A500E94D90B089587B3806B87BBBE988DB164
S1131A6081658DB969986B986A9808958FB9779B49
S1131A70FECF08958FEF8FB9779BFECF8FB1089576
S1131A80C4980895C49A08955D9BFECF8CB90895B7
S1131A905F9BFECF5F9A8CB1089590BD89B988E1B0
S1131AA08AB98EE880BD68E47DE084E49DE00E940C
S1131AB0E80E089585B7806885BF80B7877C80BFAE
S1131AC080B7806280BF0895FB01F05F8083089532
S1131AD0905FFC0180810895052E97FB1EF400940D
S1131AE00E94830D57FD07D00E94A50D07FC03D06B
S1131AF04EF40C94830D50954095309521953F4FAD
S1131B004F4F5F4F089590958095709561957F4FE5
S1131B108F4F9F4F0895A29FB001B39FC001A39F11
S1131B20700D811D1124911DB29F700D811D112412
S1131B30911D08950E948B0DA59F900DB49F900D4B
S1131B40A49F800D911D11240895A1E21A2EAA1BB1
S1131B50BB1BFD010DC0AA1FBB1FEE1FFF1FA21759
S1131B60B307E407F50720F0A21BB30BE40BF50B56
S1131B70661F771F881F991F1A9469F760957095DF
S1131B80809590959B01AC01BD01CF0108950F9301
S1131B901F93CF93DF938230910510F482E090E09D
S1131BA0E0912303F091240320E030E0A0E0B0E0D2
S1131BB0309719F1408151810281138148175907E7
S1131BC0C8F08417950769F4109731F012960C93B6
S1131BD0129713961C9327C0009323031093240396
S1131BE022C02115310519F04217530718F49A0140
S1131BF0BD01EF01DF01F801DBCF21153105F9F05B
S1131C00281B390B2430310580F48A819B816115AE
S1131C10710521F0FB019383828304C09093240314
S1131C2080932303FE01329644C0FE01E20FF31FAA
S1131C308193919322503109398328833AC02091AA
S1131C40210330912203232B41F42091020130918E
S1131C50030130932203209321032091000130914A
S1131C6001012115310541F42DB73EB7409104011E
S1131C7050910501241B350BE0912103F0912203BF
S1131C80E217F307A0F42E1B3F0B2817390778F04F
S1131C90AC014E5F5F4F2417350748F04E0F5F1FAE
S1131CA050932203409321038193919302C0E0E077
S1131CB0F0E0CF01DF91CF911F910F910895CF9361
S1131CC0DF93009709F481C0FC01329713821282DA
S1131CD0A0912303B0912403109781F420813181D2
S1131CE0820F931F20912103309122032817390773
S1131CF051F5F0932203E093210367C0ED0120E046
S1131D0030E0CE17DF0740F44A815B819E01411524
S1131D105105F1F0EA01F5CFD383C28340815181AB
S1131D20840F951FC817D90759F488819981840FA6
S1131D30951F0296918380838A819B8193838283FA
S1131D402115310529F4F0932403E09323033DC0C6
S1131D50E901FB83EA8349915991C40FD51FEC171C
S1131D60FD0761F480819181840F951F0296E9013A
S1131D7099838883828193819B838A83E0E0F0E066
S1131D8012968D919C911397009719F0FD01DC0137
S1131D90F7CF8D919C9111979D012E5F3F4F820F3C
S1131DA0931F20912103309122032817390769F4E6
S1131DB0309729F4109224031092230302C0138253
S1131DC01282B0932203A0932103DF91CF9108954F
S1131DD00F931F93CF93DF93009731F4611571052F
S1131DE019F480E090E03AC08B01EC016EE070E001
S1131DF081E090E00E944C11FC01892B91F380E872
S1131E0083830115110571F01387028781E88383A9
S1131E108091250390912603892B21F4F0932603C6
S1131E20E09325032097C9F0D187C087838182601E
S1131E3083838091270390912803892B71F4F09375
S1131E402803E09327038091290390912A03892B87
S1131E5021F4F0932A03E0932903CF01DF91CF917A
S1131E601F910F910895A0E0B0E0E9E3FFE00C9426
S1131E702F12AE014B5F5F4FFA0161917191AF0177
S1131E8080912703909128030E946B0FE2E00C9449
S1131E904B12AEE0B0E0EFE4FFE00C942D120D899C
S1131EA01E8986E08C831A8309838FEF9FE79E83C4
S1131EB08D83AE01475E5F4F6F89788DCE010196A9
S1131EC00E946B0FEF81F885E00FF11F10822E96B0
S1131ED0E4E00C944912ABE0B0E0E1E7FFE00C94DD
S1131EE01F126C017B018A01FC0117821682838117
S1131EF081FFCCC1CE0101963C01F6019381F7012B
S1131F0093FD859193FF81917F01882309F4BAC1E0
S1131F10853239F493FD859193FF81917F01853258
S1131F2029F4B60190E00E948511E7CF912C212C71
S1131F30312CFFE1F315D8F08B3279F038F480328C
S1131F4079F08332A1F4232D20611DC08D3261F01C
S1131F50803369F4232D216016C0832D8260382ECE
S1131F60E32DE4603E2E2AC0F32DF8601DC037FC3B
S1131F702DC020ED280F2A3040F08E32B9F436FC03
S1131F8081C1232D2064322E19C036FE06C08AE09A
S1131F90989E200D1124922E11C0EAE02E9E200D51
S1131FA01124222EF32DF0623F2E08C08C3621F42A
S1131FB0832D8068382E02C0883641F4F70193FDE2
S1131FC0859193FF81917F018111B3CF982F9F7DDC
S1131FD09554933028F40C5F1F4F9FE399830DC0F1
S1131FE0833631F0833771F0833509F059C021C04D
S1131FF0F801808189830E5F1F4F88248394912C7C
S1132000530113C02801F2E04F0E511CF801A080C7
S1132010B18036FE03C0692D70E002C06FEF7FEF20
S1132020C5010E947A114C018201F32DFF773F2EE6
S113203016C0280122E0420E511CF801A080B18094
S113204036FE03C0692D70E002C06FEF7FEFC5015B
S11320500E9468114C01F32DF0683F2E820133FC7D
S11320601BC0822D90E088169906B0F4B60180E278
S113207090E00E9485112A94F4CFF50137FC8591F4
S113208037FE81915F01B60190E00E948511211015
S11320902A9421E0821A91088114910471F7E8C00E
S11320A0843611F0893641F5F80137FE07C06081A6
S11320B07181828193810C5F1F4F08C0608171819F
S11320C0072E000C880B990B0E5F1F4FF32DFF7624
S11320D03F2E97FF09C090958095709561957F4F2D
S11320E08F4F9F4FF0683F2E2AE030E0A3010E94FB
S11320F0C111882E861845C0853731F4232D2F7ED3
S1132100B22E2AE030E025C0932D997FB92E8F3668
S1132110C1F018F4883579F0B5C0803719F08837E4
S113212021F0B0C0E92FE061BE2EB4FE0DC0FB2D3E
S1132130F460BF2E09C034FE0AC0292F2660B22ED7
S113214006C028E030E005C020E130E002C020E114
S113215032E0F801B7FE07C060817181828193810A
S11321600C5F1F4F06C06081718180E090E00E5FBC
S11321701F4FA3010E94C111882E8618FB2DFF77E3
S11321803F2E36FE0DC0232D2E7FA22E891458F427
S113219034FE0BC032FC09C0832D8E7EA82E05C0F0
S11321A0B82CA32C03C0B82C01C0B92CA4FE0FC0BA
S11321B0FE01E80DF11D8081803321F49A2D997E72
S11321C0A92E09C0A2FE06C0B394B39404C08A2DFC
S11321D0867809F0B394A3FC11C0A0FE06C0B21423
S11321E088F4280C922C9B180EC0B21460F4B6012B
S11321F080E290E00E948511B394F7CFB21418F4F2
S11322002B1802C0982C212CA4FE10C0B60180E328
S113221090E00E948511A2FE17C0A1FC03C088E7CC
S113222090E002C088E590E0B6010CC08A2D867863
S113223059F0A1FE02C08BE201C080E2A7FC8DE24E
S1132240B60190E00E948511891438F4B60180E348
S113225090E00E9485119A94F7CF8A94F301E80DD7
S1132260F11D8081B60190E00E9485118110F5CFA7
S1132270222009F442CEB60180E290E00E9485114A
S11322802A94F6CFF6018681978102C08FEF9FEFE3
S11322902B96E2E10C943B120F931F93CF93DF93A1
S11322A0869F8001879F100D969F100D1124C801F1
S11322B00E94C70DEC01009729F0A80160E070E0CE
S11322C00E947311CE01DF91CF911F910F91089558
S11322D0FC010590615070400110D8F780959095ED
S11322E08E0F9F1F0895DC0101C06D934150504033
S11322F0E0F70895FC016150704001900110D8F797
S1132300809590958E0F9F1F08950F931F93CF93E1
S1132310DF93FB01238121FD03C08FEF9FEF2CC0CE
S113232022FF16C046815781248135814217530705
S113233044F4A081B1819D012F5F3F4F31832083FD
S11323408C93268137812F5F3F4F3783268314C0B8
S11323508B01EC01FB010084F185E02D0995892BAB
S1132360E1F6D80116968D919C91179701961796D0
S11323709C938E931697CE01DF91CF911F910F916D
S11323800895FA01AA27283051F1203181F1E89407
S11323906F936E7F6E5F7F4F8F4F9F4FAF4FB1E054
S11323A03ED0B4E03CD0670F781F891F9A1FA11D4F
S11323B0680F791F8A1F911DA11D6A0F711D811D50
S11323C0911DA11D20D009F468943F912AE0269F15
S11323D011243019305D3193DEF6CF010895462F74
S11323E04770405D4193B3E00FD0C9F7F6CF462F55
S11323F04F70405D4A3318F0495D31FD40524193BE
S113240002D0A9F7EACFB4E0A6959795879577957A
S11324106795BA95C9F700976105710508959B0101
S1132420AC010A2E06945795479537952795BA958A
S1132430C9F7620F731F841F951FA01D08952F9263
S11324403F924F925F926F927F928F929F92AF9240
S1132450BF92CF92DF92EF92FF920F931F93CF938D
S1132460DF93CDB7DEB7CA1BDB0B0FB6F894DEBF24
S11324700FBECDBF09942A88398848885F846E844A
S11324807D848C849B84AA84B984C884DF80EE8094
S1132490FD800C811B81AA81B981CE0FD11D0FB69D
S11324A0F894DEBF0FBECDBFED010895F894FFCFC1
S11324B000002B0320005265636569766564206D16
S11324C06573736167653A202578200D0A00454ECF
S11324D0442047414D45204D4553534147452052E3
S11324E0454345495645440A0D002323232323230A
S11324F02323205374617274696E67206E6577209C
S113250073657373696F6E2023232323232323238B
S11325100A0D004D435032353135206973204E4F3A
S11325205420696E20636F6E6669677572617469A1
S11325306F6E206D6F6465206166746572207265CC
S11325407365743A2025780D0A00486967687363D7
S11325506F72653A20256400506C617974696D6509
S1132560202564004869676873636F72653A2025A3
S113257064200A0D00596F757220706C617974695A
S11325806D653A202564200A0D0048656C6C6F2047
S1132590576F726C6400496E7369646520676F6F6E
S11325A0646279650D00476F6F6462796520576FC7
S11325B0726C6400496E76616C69642043414E20FC
S11325C06D657373616765204944004561737920C3
S11325D07065616379206C656D6F6E2073717565CC
S11325E0657A79004173206E6F726D616C2061733E
S11325F0206E6F726D616C2063616E2062650053A2
S11326006F20796F75206C696B652069742068612F
S11326107264636F7265206875683F00594F552076
S1132620415245204142534F4C5554454C59204941
S11326304E53414E4521210020476F6F64204C7555
S1132640636B21002020004D61696E206D656E75FD
S11326500053746172742067616D65004469666635
S11326606963756C7479004869676873636F726530
S113267000536F756E64004D696E6967616D6573B3
S11326800045617379004E6F726D616C0048617230
S11326906400496E73616E650053656500436C6543
S10726A0617200005F
S9030000FC
