S00D00004E4F4445312E73726563C0
S11300000C9460030C9443040C947D030C947D03C2
S11300100C947D030C947D030C947D030C947D035C
S11300200C947D030C947D030C947D030C947D034C
S11300300C947D030C947D030C947D030C947D033C
S11300400C947D030C947D030C947D030C947D032C
S11300500C947D030C947D030C947D030C947D031C
S11300600C947D030C947D030C947D030C947D030C
S113007000000000005C00000C000C007C287C28C0
S113008058DC68002410480028542840000C000064
S1130090007884008478000054385400107C1000E8
S11300A080400000101010000040000060100C00A0
S11300B038543800487C40004864580044542C00AC
S11300C01C107C005C5424003854240064140C007C
S11300D068542C0048543800004800008048000050
S11300E0102844002828280044281000045408003C
S11300F038445C00781478007C5428003844280084
S11301007C4438007C5444007C140400384474005B
S11301107C107C00447C440020403C007C106C003B
S11301207C4040007C187C0078103C003844380047
S11301307C1408003844B8007C1468004854240037
S1130140047C04007C407C003C603C007C307C00EF
S11301506C106C000C700C0064544C00007C440067
S11301600C106000447C00000804080080808000BB
S113017000040800304878007C48300030484800CB
S113018030487C00306850001078140090A8780043
S11301907C08700050744000808074007C106800FB
S11301A0447C4000781078007808700030483000B3
S11301B0F82810003048F80078100800505828003B
S11301C0083C4800384078003840380078207800EF
S11301D04830480098A07800486858001078840097
S11301E0007C00008478100008040804000000006B
S11301F00000005F00000007000700147F147F1454
S1130200242A7F2A12231308646236495522500097
S113021005030000001C2241000041221C00082AA2
S11302201C2A0808083E0808005030000008080886
S11302300808006060000020100804023E5149458F
S11302403E00427F400042615149462141454B31C5
S11302501814127F1027454545393C4A4949300155
S1130260710905033649494936064949291E0036AC
S113027036000000563600000008142241141414FD
S1130280141441221408000201510906324979412B
S11302903E7E1111117E7F494949363E414141223A
S11302A07F4141221C7F494949417F090901013E9F
S11302B0414151327F0808087F00417F41002040BE
S11302C0413F017F081422417F404040407F0204A7
S11302D0027F7F0408107F3E4141413E7F090909A6
S11302E0063E4151215E7F09192946464949493153
S11302F001017F01013F4040403F1F2040201F7FFC
S11303002018207F631408146303047804036151E4
S113031049454300007F4141020408102041417FC8
S11303200000040201020440404040400001020475
S11303300020545454787F4844443838444444207A
S1130340384444487F3854545418087E090102083C
S11303501454543C7F0804047800447D4000204039
S1130360443D00007F10284400417F40007C041875
S113037004787C0804047838444444387C14141405
S113038008081414187C7C080404084854545420A5
S1130390043F4440203C4040207C1C2040201C3C26
S11303A04030403C44281028440C5050503C446495
S11303B0544C44000836410000007F0000004136E0
S11303C00800020103020100000000000000000018
S11303D0065F5F060000000007070007070000141F
S11303E07F7F147F7F1400242E6B6B3A120000462B
S11303F06630180C666200307A4F5D377A48000424
S113040007030000000000001C3E634100000000E0
S113041041633E1C000000082A3E1C1C3E2A0808BA
S1130420083E3E0808000000A0E06000000000084C
S11304300808080808000000006060000000006070
S113044030180C060301003E7F594D7F3E000042E8
S1130450427F7F40400000627359496F660000226A
S11304606349497F360000181C16137F7F1000274C
S11304706745457D3900003C7E4B497930000003D7
S11304806371190F070000367F49497F3600000663
S11304904F49693F1E000000006C6C000000000022
S11304A0A0EC6C00000000081C366341000000143E
S11304B014141414140000004163361C08000002D4
S11304C00351590F0600003E7F415D5D1F1E007CF5
S11304D07E13137E7C0000417F7F49497F36001CD8
S11304E03E634141632200417F7F41637F1C0041A1
S11304F07F7F495D416300417F7F491D0103001CEB
S11305003E6341517372007F7F08087F7F000000C3
S1130510417F7F41000000307040417F3F01004136
S11305207F7F081C776300417F7F41406070007FBC
S11305307F060C067F7F007F7F060C187F7F001CE0
S11305403E6341633E1C00417F7F49090F06001E44
S11305503F21717F5E0000417F7F19396F4600267D
S1130560674D597B32000003417F7F410300007FC8
S11305707F40407F7F00001F3F60603F1F00007F7F
S11305807F3018307F7F0063771C081C7763000777
S11305904F78784F0700006773594D476371000027
S11305A07F7F41410000000103060C183060000009
S11305B041417F7F000000080C0603060C08008000
S11305C08080808080808000000307040000002079
S11305D07454543C784000413F7F44447C38003894
S11305E07C44446C280000307848493F7F40003800
S11305F07C54545C180000487E7F49030200009834
S1130600BCA4A4F87C0400417F7F08047C7800002B
S1130610447D7D4000000040C484FD7D0000004115
S11306207F7F10386C440000417F7F400000007CD5
S11306307C0C180C7C78007C7C04047C78000038EA
S11306407C44447C38000084FCF8A4243C18001842
S11306503C24A4F8FC8400447C78441C1800004822
S11306605C54547424000000043E7F442400003C85
S11306707C40403C7C40001C3C60603C1C00003CD6
S11306807C6030607C3C00446C3810386C44009CC6
S1130690BCA0A0FC7C00004C64745C4C64000008AA
S11306A0083E7741410000000000777700000041D8
S11306B041773E0808000002030103020301000021
S11306C011241FBECFEFD4E0DEBFCDBF12E0A0E007
S11306D0B1E0ECE3FFE102C005900D92AA3FB1073F
S11306E0D9F723E0AAEFB2E001C01D92AE31B20700
S11306F0E1F70E947E040C949C0F0C9400008D9AE8
S11307008EB5887F8EBD8EB581608EBD8FB58E7F90
S11307108FBD8FB58D7F8FBD8EB588608EBD8EB534
S11307208F7E8EBD8FB58F778FBD8FB580648FBD63
S113073081E090E09BBD8ABD0895FF920F931F93C3
S1130740CF93DF93082F60E074E00E949C0A10E0CE
S1130750101611065CF4C0E0D0E080E094E00E9442
S1130760A00AF82E2196C017D107B9F78F2DDF9173
S1130770CF911F910F91FF900895CF92DF92EF9246
S1130780FF921F93CF93DF936C01FC01C081D18151
S11307906C2F6295660F607E42E380EE0E94DF0458
S11307A0CE0196958795969587959695879561E35D
S11307B00E94A80445E3F60162818FE00E94DF04F1
S11307C0F60182818823A9F07601F3E0EF0EF11C93
S11307D016E3C0E0D0E0612FF70181917F010E9410
S11307E0A80421961F5FF601828190E0C817D907FB
S11307F094F340E050E060E070E081E090E00E941B
S1130800BC04F60186811F928F9385811F928F937A
S113081084811F928F9383811F928F9386E091E04E
S11308209F938F930E946B0C8DB79EB70A960FB659
S1130830F8949EBF0FBE8DBFDF91CF911F91FF90A3
S1130840EF90DF90CF900895F8944BE26FEF83E040
S11308500E94DF048A9885B7826085BF85B78E7F42
S113086085BF8BB780648BBF78940895CF93C82FCE
S11308700E9401050E9424044FE06C2F80EE0E9428
S1130880DF04CF9108951F920F920FB60F92112497
S11308902F933F934F935F936F937F938F939F9384
S11308A0AF93BF93CF93EF93FF938CE20E94960490
S11308B0C82F80FF07C081E08093FB024CE260E018
S11308C00E94DF04C1FF08C081E08093FA024CE279
S11308D060E082E00E94DF04FF91EF91CF91BF912D
S11308E0AF919F918F917F916F915F914F913F91C4
S11308F02F910F900FBE0F901F9018958FE190E0ED
S11309000E94850A0E94920A0E947F030E94BE07E9
S113091080E00E9436040E9471090E94B50585EAB0
S113092091E00E94810C0E940307FDCFCF93C82F52
S11309300E94780A83E00E946E0A8C2F0E946E0A3D
S11309400E94720AC82F0E947A0A8C2FCF910895B0
S1130950CF93DF93C82FD62F0E94780A82E00E949B
S11309606E0A8D2F0E946E0A8C2F0E946E0A0E94BE
S11309707A0ADF91CF910895EF92FF920F931F931C
S1130980CF93DF937C018B01EA010E94780AEF2860
S113099019F081E80E946E0A012B19F082E80E9486
S11309A06E0ACD2B19F084E80E946E0A0E947A0A1E
S11309B0DF91CF911F910F91FF90EF9008951F93B6
S11309C0CF93DF93D82FC62F142F0E94780A85E087
S11309D00E946E0A812F0E946E0A8D2F0E946E0A59
S11309E08C2F0E946E0A0E947A0ADF91CF911F9188
S11309F008950E94780A80EC0E946E0A0E947A0A86
S1130A0008950E94630A0E94F9048EE00E949604ED
S1130A10982F907E903871F01F928F938DEC91E017
S1130A209F938F930E946B0C0F900F900F900F90D9
S1130A3081E0089548E265E887EC0E94DF0449E21A
S1130A4061EB8FEF0E94DF044AE263EC8FEF0E94B8
S1130A50DF0480E008950895089563E082E00E9431
S1130A60C1098091100390911103E0910003F0916A
S1130A700103EE0FFF1FE80FF91F0580F681E02D3B
S1130A808081813059F028F0823069F0833081F020
S1130A90089584E092E00E941F0A08958DE192E097
S1130AA00E941F0A089588E392E00E941F0A089595
S1130AB085E592E00E941F0A0895CF92DF92EF929B
S1130AC0FF921F93CF93DF93EC016B017A01122FF6
S1130AD08BE190E00E94FF0ADC011296DC92CE9238
S1130AE011975696DC93CE9355975A961C921E9264
S1130AF059975896FC92EE9257971C93FC013596A1
S1130B009C012B5E3F4F11921192E217F307D9F724
S1130B108D819E81892B49F0FE01379621E030E0DA
S1130B2041915191452B91F402C020E030E0220F15
S1130B30331FFE01E20FF31FB683A583898D9A8DBF
S1130B4001969A8F898F8A2F9B2F07C02F5F3F4F63
S1130B502830310529F780E090E0DF91CF911F9193
S1130B60FF90EF90DF90CF900895EF92FF920F9354
S1130B701F93CF93DF9328E040E050E06BE972E0ED
S1130B8080E090E00E945D05EC0190931103809356
S1130B90100328E040E050E065EA72E00E945D0541
S1130BA028E040E050E060EB72E0CE010E945D0579
S1130BB08C0128E040E050E06BEB72E0CE010E9433
S1130BC05D057C0128E040E050E065EC72E0CE0178
S1130BD00E945D0528E040E050E06BEC72E0CE013D
S1130BE00E945D0520E04DE255E065ED72E0C8012C
S1130BF00E945D0521E04DE255E06AED72E0C80116
S1130C000E945D0522E04DE255E061EE72E0C8010C
S1130C100E945D0523E04DE255E066EE72E0C801F6
S1130C200E945D0524E04BE255E06DEE72E0C701E1
S1130C300E945D0525E04CE255E061EF72E0C701DA
S1130C400E945D05DF91CF911F910F91FF90EF906E
S1130C500895CF93DF930E946309C0E0D0E0E09150
S1130C601003F0911103CE01880F991FE80FF91FAB
S1130C7085819681892BE1F160E08C2F0E94C10966
S1130C8080910003909101038C179D07E9F488EF8C
S1130C9092E00E941F0A60E08C2F0E94510A87EFA5
S1130CA092E00E941F0AE0911003F0911103CE011B
S1130CB0880F991FE80FF91F0580F681E02D8181C7
S1130CC092810E941F0A14C088EF92E00E941F0ABA
S1130CD0E0911003F0911103CE01880F991FE80FE2
S1130CE0F91F0580F681E02D818192810E941F0AFF
S1130CF02196C830D10509F0B2CFDF91CF91089584
S1130D00813009F44FC0A0F18230F1F0833009F052
S1130D1079C0E0911003F0911103818D928D20919F
S1130D200003309101030197281739070CF06AC0BA
S1130D3080910003909101030196909301038093A5
S1130D4000030E94290608958091000390910103F5
S1130D50181619060CF056C08091000390910103F7
S1130D60019790930103809300030E94290608953C
S1130D70E0911003F091110385899689892B09F478
S1130D8041C08589968990931103809310038091C3
S1130D90FE029091FF0290930103809300030E944E
S1130DA0290608958091100390911103E0910003A6
S1130DB0F0910103EE0FFF1FE80FF91F0580F68184
S1130DC0E02D218D328D232BE9F020910003309109
S1130DD00103220F331FFC01E20FF31F858196816B
S1130DE09093110380931003809100039091010369
S1130DF09093FF028093FE0210920103109200036D
S1130E000E9429060895CF93DF93CDB7DEB762978A
S1130E100FB6F894DEBF0FBECDBF0E948E0880933C
S1130E2012030E94D70829833A834B835C836D8322
S1130E307E838F83E1E0F0E0F987E88794E09A8786
S1130E402B874C876D878E8780911203823009F43B
S1130E5057C038F4882309F465C0813009F474C09C
S1130E6084C08330D1F1843009F07FC00E94CF0860
S1130E70892B61F1CE0108960E94BD038091100375
S1130E8090911103E0910003F0910103EE0FFF1F15
S1130E90E80FF91F0580F681E02D8789908D892B55
S1130EA0A9F00E9463098091100390911103E091CD
S1130EB00003F0910103EE0FFF1FE80FF91F0580F7
S1130EC0F681E02D0788F08DE02D099581E090E012
S1130ED09093FD028093FC0248C08091FC029091A3
S1130EE0FD02892B09F441C0CE0108960E94BD037E
S1130EF083E00E9480061092FD021092FC0235C02D
S1130F008091FC029091FD02892B79F1CE01089623
S1130F100E94BD0382E00E9480061092FD0210929E
S1130F20FC0223C08091FC029091FD02892BE9F020
S1130F30CE0108960E94BD0380E00E9480061092B4
S1130F40FD021092FC0211C08091FC029091FD02FE
S1130F50892B59F0CE0108960E94BD0381E00E94BE
S1130F6080061092FD021092FC0262960FB6F8946D
S1130F70DEBF0FBECDBFDF91CF91089581E00E9407
S1130F809D0390E0909307038093060382E00E9400
S1130F909D0390E090930D0380930C0387B3887FA7
S1130FA087BB0895CF92DF92EF92FF9281E00E9477
S1130FB09D03F82E82E00E949D034F2D50E060E0D7
S1130FC070E0C82ED12CE12CF12C80910603909175
S1130FD00703092E000CAA0BBB0B481759076A0715
S1130FE07B072CF18091060390910703E09106039F
S1130FF0F0910703092E000CAA0BBB0B9A01AB015D
S1131000281B390B4A0B5B0BA4E6B0E00E94D20A02
S11310102FEF30E02E1B3F0B032E000C440B550B1F
S11310200E94A40A309309032093080320C08091EE
S1131030060390910703E0910603F0910703092E3C
S1131040000CAA0BBB0B9A01AB01281B390B4A0BF2
S11310505B0BA4E6B0E00E94D20A9F01FF0F440B91
S1131060550B0E94A40A309309032093080380912E
S11310700C0390910D03092E000CAA0BBB0BC81690
S1131080D906EA06FB062CF180910C0390910D031E
S1131090E0910C03F0910D03092E000CAA0BBB0B7D
S11310A0A7019601281B390B4A0B5B0BA4E6B0E0A1
S11310B00E94D20A2FEF30E02E1B3F0B032E000CB0
S11310C0440B550B0E94A40A30930F0320930E0384
S11310D020C080910C0390910D03E0910C03F091DA
S11310E00D03092E000CAA0BBB0BA7019601281BAC
S11310F0390B4A0B5B0BA4E6B0E00E94D20A9F01B5
S1131100FF0F440B550B0E94A40A30930F03209346
S11311100E03FF90EF90DF90CF9008950E94D207C6
S1131120809108039091090399231CF4919581956A
S1131130910920910E0330910F0333231CF4319550
S113114021953109863491051CF426343105FCF0CF
S1131150281739076CF48734910554F0209108035B
S11311603091090381E012161306C4F080E008955B
S11311708217930774F4273431056CF080910E03C1
S113118090910F031816190644F083E0089584E043
S1131190089585E0089585E0089582E0089586B372
S11311A08695869591E08927817090E00895CF9285
S11311B0DF92EF92FF920F931F93CF93DF93CDB7FC
S11311C0DEB727970FB6F894DEBF0FBECDBF0E94DF
S11311D0D207C0900803D0900903E0900E03F0906A
S11311E00F030E94CF08182F092F0E948E08DA825D
S11311F0C982FC82EB822C2D3A814E2D5C81612FB9
S1131200702F90E027960FB6F894DEBF0FBECDBFC7
S1131210DF91CF911F910F91FF90EF90DF90CF90CE
S11312200895CF93DF931F92CDB7DEB78983898169
S113123060E072E10E949C0A0F90DF91CF910895C3
S1131240CF93DF931F92CDB7DEB78983898160E0A6
S113125070E10E949C0A0F90DF91CF910895CF9383
S113126084FBCC27C0F981700E94200980E18C0F97
S11312700E942009CF910895CF93C82F80EB8C0F43
S11312800E9420098C2F90E0909303038093020323
S1131290CF91089580E00E943C0980E00E942F09CC
S11312A010920303109202030895CF93DF930E94D8
S11312B03C09C0E8D0E080E00E9411092197D9F7E9
S11312C0DF91CF910895CF930E944A09C0E08C2FFB
S11312D00E945509CF5FC830D1F70E944A09CF91C7
S11312E008958EEA0E94200981EA0E9420098AED6D
S11312F00E94200982E10E94200988EC0E942009B2
S113130088EA0E9420098FE30E94200985ED0E944B
S1131310200980E80E94200981E80E94200980E5D4
S11313200E94200989ED0E94200981E20E9420097F
S113133080E20E94200982E00E9420098BED0E9435
S1131340200980E30E9420098DEA0E94200980E0A0
S11313500E94200984EA0E94200986EA0E9420094A
S11313608FEA0E94200980EB0E94200980E00E94FD
S1131370200980E10E9420090E946309109213034E
S11313800895CF93C62F0E943C098C2F0E942F09E9
S1131390CF9108950F931F93CF93DF9390911303ED
S11313A09130B1F058F1923009F044C0C82FD0E028
S11313B0CC0FDD1FCC0FDD1FC051D04014E0FE0167
S11313C084910E941109115021961111F8CF32C055
S11313D0C82FD0E0A097CE01880F991F880F991FBE
S11313E0C80FD91FC451DE4F15E0FE0184910E943D
S11313F01109115021961111F8CF1CC0C82FD0E04B
S11314008E01000F111F000F111F000F111F095330
S11314101D4FCC0FDD1FCC0FDD1FCC0FDD1FC153C3
S1131420DD4FF80184910E9411090F5F1F4F0C17C3
S11314301D07B9F7DF91CF911F910F910895EF9296
S1131440FF920F931F93CF93DF937C0100E010E092
S1131450C0E0D0E019C09E01220F331F220F331FBA
S1131460220F331F2038310534F40E94CA09219613
S11314700F5F1F4F09C080910203909103038F5F98
S11314800E943C09C0E0D0E0F701E00FF11F808129
S11314908111E1CFDF91CF911F910F91FF90EF90D8
S11314A008950E94C10988E10E94110988E10E94FF
S11314B011098EE70E9411098CE30E94110988E149
S11314C00E941109089587B3806B87BBBE988DB1C4
S11314D081658DB969986B986A9808958FB9779BDF
S11314E0FECF08958FEF8FB9779BFECF8FB108950C
S11314F0C4980895C49A08955D9BFECF8CB908954D
S11315005F9BFECF5F9A8CB1089590BD89B988E145
S11315108AB98EE880BD60E87AE08CE79AE00E94A0
S1131520200C089585B7806885BF80B7877C80BF0D
S113153080B7806280BF0895FB01F05F80830895C7
S1131540905FFC0180810895052E97FB1EF40094A2
S11315500E94BB0A57FD07D00E94DD0A07FC03D096
S11315604EF40C94BB0A50954095309521953F4F0D
S11315704F4F5F4F089590958095709561957F4F7B
S11315808F4F9F4F0895A29FB001B39FC001A39FA7
S1131590700D811D1124911DB29F700D811D1124A8
S11315A0911D08950E94C30AA59F900DB49F900DAC
S11315B0A49F800D911D11240895A1E21A2EAA1B47
S11315C0BB1BFD010DC0AA1FBB1FEE1FFF1FA217EF
S11315D0B307E407F50720F0A21BB30BE40BF50BEC
S11315E0661F771F881F991F1A9469F76095709575
S11315F0809590959B01AC01BD01CF0108950F9397
S11316001F93CF93DF938230910510F482E090E032
S1131610E0911603F091170320E030E0A0E0B0E081
S1131620309719F14081518102811381481759077C
S1131630C8F08417950769F4109731F012960C934B
S1131640129713961C9327C0009316031093170345
S113165022C02115310519F04217530718F49A01D5
S1131660BD01EF01DF01F801DBCF21153105F9F0F0
S1131670281B390B2430310580F48A819B81611544
S1131680710521F0FB019383828304C090931703B7
S113169080931603FE01329644C0FE01E20FF31F4D
S11316A08193919322503109398328833AC0209140
S11316B0140330911503232B41F42091020130913E
S11316C003013093150320931403209100013091FA
S11316D001012115310541F42DB73EB740910401B4
S11316E050910501241B350BE0911403F09115036F
S11316F0E217F307A0F42E1B3F0B2817390778F0E5
S1131700AC014E5F5F4F2417350748F04E0F5F1F43
S113171050931503409314038193919302C0E0E026
S1131720F0E0CF01DF91CF911F910F910895CF93F6
S1131730DF93009709F481C0FC013297138212826F
S1131740A0911603B0911703109781F42081318181
S1131750820F931F20911403309115032817390722
S113176051F5F0931503E093140367C0ED0120E0F5
S113177030E0CE17DF0740F44A815B819E014115BA
S11317805105F1F0EA01F5CFD383C2834081518141
S1131790840F951FC817D90759F488819981840F3C
S11317A0951F0296918380838A819B819383828390
S11317B02115310529F4F0931703E09316033DC076
S11317C0E901FB83EA8349915991C40FD51FEC17B2
S11317D0FD0761F480819181840F951F0296E901D0
S11317E099838883828193819B838A83E0E0F0E0FC
S11317F012968D919C911397009719F0FD01DC01CD
S1131800F7CF8D919C9111979D012E5F3F4F820FD1
S1131810931F20911403309115032817390769F495
S1131820309729F4109217031092160302C0138202
S11318301282B0931503A0931403DF91CF910895FE
S11318400F931F93CF93DF93009731F461157105C4
S113185019F480E090E03AC08B01EC016EE070E096
S113186081E090E00E94920EFC01892B91F380E8C4
S113187083830115110571F01387028781E883833F
S11318808091180390911903892B21F4F093190383
S1131890E09318032097C9F0D187C08783818260C1
S11318A0838380911A0390911B03892B71F4F09325
S11318B01B03E0931A0380911C0390911D03892B51
S11318C021F4F0931D03E0931C03CF01DF91CF912A
S11318D01F910F910895A0E0B0E0E1E7FCE00C94C3
S11318E0750FAE014B5F5F4FFA0161917191AF01CA
S11318F080911A0390911B030E94B10CE2E00C94B6
S1131900910F0F931F93CF93DF93E0911A03F091FC
S11319101B03238121FF1BC08C01D0E0C0E0F80130
S113192081918F0160911A0370911B03DB0118965A
S1131930ED91FC911997882331F00995892B79F35E
S1131940DFEFCFEFECCF8AE00995892B19F08FEF09
S11319509FEF02C08D2F9C2FDF91CF911F910F918C
S11319600895ABE0B0E0E7EBFCE00C94650F6C018C
S11319707B018A01FC0117821682838181FFCCC11D
S1131980CE0101963C01F6019381F70193FD859107
S113199093FF81917F01882309F4BAC1853239F418
S11319A093FD859193FF81917F01853229F4B601DE
S11319B090E00E94CB0EE7CF912C212C312CFFE13B
S11319C0F315D8F08B3279F038F4803279F0833221
S11319D0A1F4232D20611DC08D3261F0803369F4A0
S11319E0232D216016C0832D8260382EE32DE46000
S11319F03E2E2AC0F32DF8601DC037FC2DC020ED0B
S1131A00280F2A3040F08E32B9F436FC81C1232DE0
S1131A102064322E19C036FE06C08AE0989E200D3E
S1131A201124922E11C0EAE02E9E200D1124222EA4
S1131A30F32DF0623F2E08C08C3621F4832D80688C
S1131A40382E02C0883641F4F70193FD859193FF47
S1131A5081917F018111B3CF982F9F7D955493304D
S1131A6028F40C5F1F4F9FE399830DC0833631F038
S1131A70833771F0833509F059C021C0F8018081A2
S1131A8089830E5F1F4F88248394912C530113C0C4
S1131A902801F2E04F0E511CF801A080B18036FEFF
S1131AA003C0692D70E002C06FEF7FEFC5010E9493
S1131AB0C00E4C018201F32DFF773F2E16C0280182
S1131AC022E0420E511CF801A080B18036FE03C012
S1131AD0692D70E002C06FEF7FEFC5010E94AE0E6A
S1131AE04C01F32DF0683F2E820133FC1BC0822D84
S1131AF090E088169906B0F4B60180E290E00E9466
S1131B00CB0E2A94F4CFF50137FC859137FE8191F1
S1131B105F01B60190E00E94CB0E21102A9421E0CF
S1131B20821A91088114910471F7E8C0843611F087
S1131B30893641F5F80137FE07C0608171818281E1
S1131B4093810C5F1F4F08C060817181072E000CC8
S1131B50880B990B0E5F1F4FF32DFF763F2E97FFD7
S1131B6009C090958095709561957F4F8F4F9F4FD9
S1131B70F0683F2E2AE030E0A3010E94070F882E70
S1131B80861845C0853731F4232D2F7EB22E2AE0E6
S1131B9030E025C0932D997FB92E8F36C1F018F40B
S1131BA0883579F0B5C0803719F0883721F0B0C096
S1131BB0E92FE061BE2EB4FE0DC0FB2DF460BF2EF4
S1131BC009C034FE0AC0292F2660B22E06C028E0C0
S1131BD030E005C020E130E002C020E132E0F8014D
S1131BE0B7FE07C060817181828193810C5F1F4FB2
S1131BF006C06081718180E090E00E5F1F4FA301F9
S1131C000E94070F882E8618FB2DFF773F2E36FE85
S1131C100DC0232D2E7FA22E891458F434FE0BC040
S1131C2032FC09C0832D8E7EA82E05C0B82CA32CAF
S1131C3003C0B82C01C0B92CA4FE0FC0FE01E80DEE
S1131C40F11D8081803321F49A2D997EA92E09C03B
S1131C50A2FE06C0B394B39404C08A2D867809F01A
S1131C60B394A3FC11C0A0FE06C0B21488F4280CDF
S1131C70922C9B180EC0B21460F4B60180E290E07E
S1131C800E94CB0EB394F7CFB21418F42B1802C0F1
S1131C90982C212CA4FE10C0B60180E390E00E9491
S1131CA0CB0EA2FE17C0A1FC03C088E790E002C0DF
S1131CB088E590E0B6010CC08A2D867859F0A1FE23
S1131CC002C08BE201C080E2A7FC8DE2B60190E085
S1131CD00E94CB0E891438F4B60180E390E00E9490
S1131CE0CB0E9A94F7CF8A94F301E80DF11D80810D
S1131CF0B60190E00E94CB0E8110F5CF222009F4AA
S1131D0042CEB60180E290E00E94CB0E2A94F6CF38
S1131D10F6018681978102C08FEF9FEF2B96E2E157
S1131D200C94810F0F931F93CF93DF93869F8001B1
S1131D30879F100D969F100D1124C8010E94FF0A61
S1131D40EC01009729F0A80160E070E00E94B90E50
S1131D50CE01DF91CF911F910F910895FC01059061
S1131D60615070400110D8F7809590958E0F9F1F99
S1131D700895DC0101C06D9341505040E0F708958F
S1131D80FC016150704001900110D8F78095909546
S1131D908E0F9F1F08950F931F93CF93DF93FB0123
S1131DA0238121FD03C08FEF9FEF2CC022FF16C0BB
S1131DB046815781248135814217530744F4A08119
S1131DC0B1819D012F5F3F4F318320838C93268106
S1131DD037812F5F3F4F3783268314C08B01EC017B
S1131DE0FB010084F185E02D0995892BE1F6D801EA
S1131DF016968D919C911797019617969C938E93A6
S1131E001697CE01DF91CF911F910F910895FA019A
S1131E10AA27283051F1203181F1E8946F936E7F25
S1131E206E5F7F4F8F4F9F4FAF4FB1E03ED0B4E016
S1131E303CD0670F781F891F9A1FA11D680F791F57
S1131E408A1F911DA11D6A0F711D811D911DA11D68
S1131E5020D009F468943F912AE0269F1124301978
S1131E60305D3193DEF6CF010895462F4770405D13
S1131E704193B3E00FD0C9F7F6CF462F4F70405DC2
S1131E804A3318F0495D31FD4052419302D0A9F71D
S1131E90EACFB4E0A6959795879577956795BA9517
S1131EA0C9F700976105710508959B01AC010A2EDD
S1131EB006945795479537952795BA95C9F7620FB4
S1131EC0731F841F951FA01D08952F923F924F9258
S1131ED05F926F927F928F929F92AF92BF92CF92B6
S1131EE0DF92EF92FF920F931F93CF93DF93CDB7BF
S1131EF0DEB7CA1BDB0B0FB6F894DEBF0FBECDBF37
S1131F0009942A88398848885F846E847D848C8407
S1131F109B84AA84B984C884DF80EE80FD800C8110
S1131F201B81AA81B981CE0FD11D0FB6F894DEBFF3
S10F1F300FBECDBFED010895F894FFCF63
S1131F3C00001E0320005472616E736D6974746525
S1131F4C64206D6573736167653A20583A2025786F
S1131F5C2C20593A202578202C20627574746F6ECD
S1131F6C3A20257820616E64206469726563746913
S1131F7C6F6E203A202578200D0A0052656365693E
S1131F8C766564206D6573736167653A20583A20F1
S1131F9C25782C20593A202578202C2062757474CD
S1131FAC6F6E3A20257820616E64206469726563D3
S1131FBC74696F6E203A202578200D0A00526563EF
S1131FCC6569766564206D6573736167653A202570
S1131FDC78200D0A00232323232323232320537443
S1131FEC617274696E67206E6577207365737369AB
S1131FFC6F6E2023232323232323230D004D4350CF
S113200C32353135206973204E4F5420696E20636C
S113201C6F6E66696775726174696F6E206D6F643B
S113202C652061667465722072657365743A202547
S113203C780D0A0045617379207065616379206CB1
S113204C656D6F6E2073717565657A7900417320C7
S113205C6E6F726D616C206173206E6F726D616C4A
S113206C2063616E20626500536F20796F75206C5C
S113207C696B652069742068617264636F72652092
S113208C6875683F00594F552041524520414253D1
S113209C4F4C5554454C5920494E53414E452121E2
S11320AC0048656C6C6F20576F726C6400496E73DA
S11320BC69646520676F6F646279650D00476F6FA3
S11320CC6462796520576F726C64004D61696E208F
S11320DC6D656E750053746172742067616D650073
S11320EC446966666963756C7479004869676873DA
S11320FC636F726500536F756E64004D696E69672A
S113210C616D65730045617379004E6F726D616C1E
S113211C004861726400496E73616E6500536565B5
S10D212C00436C656172002020007E
S9030000FC
