S019000041767254657374496365496365426162792E73726563A2
S11300000C9438000C94A3010C9455000C945500E6
S11300100C9455000C9455000C9455000C94550008
S11300200C9455000C9455000C9455000C945500F8
S11300300C9455000C9455000C9455000C945500E8
S11300400C9455000C9455000C9455000C945500D8
S11300500C9455000C9455000C9455000C945500C8
S11300600C9455000C9455000C9455000C945500B8
S113007011241FBECFEFD4E0DEBFCDBF11E0A0E05E
S1130080B1E0E2EFFEE002C005900D92A43CB1079E
S1130090D9F721E0A4ECB1E001C01D92A03DB20764
S11300A0E1F70E94DE010C9477070C9400008D9A0E
S11300B08EB5887F8EBD8EB581608EBD8FB58E7FE7
S11300C08FBD8FB58D7F8FBD8EB588608EBD8EB58B
S11300D08F7E8EBD8FB58F778FBD8FB580648FBDBA
S11300E081E090E09BBD8ABD0895CF92DF92EF92AC
S11300F0FF921F93CF93DF936C01FC01C081D181E8
S11301006C2F6295660F607E42E380EE0E9460026F
S1130110CE0196958795969587959695879561E3F3
S11301200E94290245E3F60162818FE00E94600289
S1130130F60182818823A9F07601F3E0EF0EF11C29
S113014016E3C0E0D0E0612FF70181917F010E94A6
S1130150290221961F5FF601828190E0C817D90712
S113016094F340E050E060E070E081E090E00E94B1
S11301703D02F60183811F928F9386E091E09F9365
S11301808F930E9446040F900F900F900F90DF9171
S1130190CF911F91FF90EF90DF90CF900895CF9271
S11301A0DF92FF920F931F93CF93DF93EC01809123
S11301B0C501882309F44EC085E60E9417028F709A
S11301C08A838823C1F06E0183E0C80ED11C0F2EF0
S11301D0F6E6FF2EF02D00E010E08F2D0E941702AE
S11301E0F60181936F010F5F1F4FF3948A8190E0B2
S11301F00817190794F381E60E941702182F82E664
S11302000E941702807E90E0959587959595879535
S1130210959587959595879595958795212F30E0A8
S1130220220F331F220F331F220F331F822B932BD6
S1130230998388831092C5018B811F928F938EE1DD
S113024091E09F938F930E9446040F900F900F901C
S11302500F9052C08091C401882309F44DC085E7F2
S11302600E9417028F708A838823C1F06E01F3E025
S1130270CF0ED11C0F2EF6E7FF2EF02D00E010E07C
S11302808F2D0E941702F60181936F010F5F1F4F9C
S1130290F3948A8190E00817190794F381E70E9488
S11302A01702182F82E70E941702807E90E095952E
S11302B08795959587959595879595958795959522
S11302C08795212F30E0220F331F220F331F220F77
S11302D0331F822B932B998388831092C4018B81C3
S11302E01F928F938EE191E09F938F930E94460417
S11302F00F900F900F900F90DF91CF911F910F915E
S1130300FF90DF90CF900895F8944BE26FEF83E075
S11303100E9460028A9885B7826085BF85B78E7F08
S113032085BF8BB780648BBF78940895CF93C82F13
S11303300E9482020E9484014FE06C2F80EE0E9492
S11303406002CF9108951F920F920FB60F9211245D
S11303502F933F934F935F936F937F938F939F93C9
S1130360AF93BF93CF93EF93FF938CE20E94170256
S1130370C82F80FF07C081E08093C5014CE260E094
S11303800E946002C1FF08C081E08093C4014CE276
S113039060E082E00E946002FF91EF91CF91BF91F3
S11303A0AF919F918F917F916F915F914F913F9109
S11303B02F910F900FBE0F901F901895CF93DF933E
S11303C0CDB7DEB7AC970FB6F894DEBF0FBECDBF86
S11303D08FE190E00E94C3020E94D0020E94570065
S11303E080E40E94960186E391E00E945C0486E723
S11303F090E09A83898381E08B8395E59C832BE746
S113040030E03D872C878E878DE48F87CE0101965F
S11304100E947500CE0147960E94CF00CE010C9633
S11304200E947500CE0182960E94CF00EFCFCF9339
S1130430C82F0E94B60283E00E94AC028C2F0E9457
S1130440AC020E94B002C82F0E94B8028C2FCF9138
S11304500895CF93DF93C82FD62F0E94B60282E06F
S11304600E94AC028D2F0E94AC028C2F0E94AC0221
S11304700E94B802DF91CF910895EF92FF920F93FB
S11304801F93CF93DF937C018B01EA010E94B60294
S1130490EF2819F081E80E94AC02012B19F082E8E0
S11304A00E94AC02CD2B19F084E80E94AC020E9499
S11304B0B802DF91CF911F910F91FF90EF900895B3
S11304C01F93CF93DF93D82FC62F142F0E94B60209
S11304D085E00E94AC02812F0E94AC028D2F0E9405
S11304E0AC028C2F0E94AC020E94B802DF91CF9123
S11304F01F9108950E94B60280EC0E94AC020E94F3
S1130500B80208950E94A1020E947A028EE00E941D
S11305101702982F907E903871F01F928F938EE57A
S113052091E09F938F930E9446040F900F900F9039
S11305300F9081E0089585E991E00E945C0480E0D9
S1130540089587B3806B87BBBE988DB181658DB9E3
S113055069986B986A9808958FB9779BFECF089530
S11305608FEF8FB9779BFECF8FB10895C49808950C
S1130570C49A08955D9BFECF8CB908955F9BFECF0E
S11305805F9A8CB1089590BD89B988E18AB98EE8E3
S113059080BD6EEB72E08AEB92E00E94FB0308954B
S11305A085B7806885BF80B7877C80BF80B780624D
S11305B080BF08950F931F93CF93DF9382309105EB
S11305C010F482E090E0E091C801F091C90120E0CC
S11305D030E0A0E0B0E0309719F140815181028110
S11305E0138148175907C8F08417950769F41097C1
S11305F031F012960C93129713961C9327C0009314
S1130600C8011093C90122C02115310519F0421700
S1130610530718F49A01BD01EF01DF01F801DBCFA4
S113062021153105F9F0281B390B2430310580F4EC
S11306308A819B816115710521F0FB01938382837B
S113064004C09093C9018093C801FE01329644C04E
S1130650FE01E20FF31F81939193225031093983F4
S113066028833AC02091C6013091C701232B41F45D
S113067020910201309103013093C7012093C601F8
S113068020910001309101012115310541F42DB76C
S11306903EB74091040150910501241B350BE091B4
S11306A0C601F091C701E217F307A0F42E1B3F0B1C
S11306B02817390778F0AC014E5F5F4F24173507D0
S11306C048F04E0F5F1F5093C7014093C6018193BA
S11306D0919302C0E0E0F0E0CF01DF91CF911F9150
S11306E00F910895CF93DF93009709F481C0FC0123
S11306F0329713821282A091C801B091C901109758
S113070081F420813181820F931F2091C6013091A1
S1130710C7012817390751F5F093C701E093C601C3
S113072067C0ED0120E030E0CE17DF0740F44A81D6
S11307305B819E0141155105F1F0EA01F5CFD383A8
S1130740C28340815181840F951FC817D90759F47A
S113075088819981840F951F0296918380838A8171
S11307609B81938382832115310529F4F093C90178
S1130770E093C8013DC0E901FB83EA8349915991A3
S1130780C40FD51FEC17FD0761F480819181840F9C
S1130790951F0296E90199838883828193819B83C3
S11307A08A83E0E0F0E012968D919C911397009774
S11307B019F0FD01DC01F7CF8D919C9111979D01FA
S11307C02E5F3F4F820F931F2091C6013091C701C6
S11307D02817390769F4309729F41092C901109247
S11307E0C80102C013821282B093C701A093C6014C
S11307F0DF91CF9108950F931F93CF93DF930097C9
S113080031F46115710519F480E090E03AC08B0170
S1130810EC016EE070E081E090E00E946D06FC0166
S1130820892B91F380E883830115110571F01387F7
S1130830028781E883838091CA019091CB01892B3F
S113084021F4F093CB01E093CA012097C9F0D1873A
S1130850C0878381826083838091CC019091CD0194
S1130860892B71F4F093CD01E093CC018091CE01FA
S11308709091CF01892B21F4F093CF01E093CE0125
S1130880CF01DF91CF911F910F910895A0E0B0E0C7
S1130890ECE4F4E00C945007AE014B5F5F4FFA01B7
S11308A061917191AF018091CC019091CD010E9431
S11308B08C04E2E00C946C070F931F93CF93DF93A7
S11308C0E091CC01F091CD01238121FF1BC08C016B
S11308D0D0E0C0E0F80181918F016091CC0170916A
S11308E0CD01DB011896ED91FC911997882331F025
S11308F00995892B79F3DFEFCFEFECCF8AE00995E7
S1130900892B19F08FEF9FEF02C08D2F9C2FDF9161
S1130910CF911F910F910895ABE0B0E0E2E9F4E0CC
S11309200C9440076C017B018A01FC01178216823A
S1130930838181FFCCC1CE0101963C01F6019381F4
S1130940F70193FD859193FF81917F01882309F439
S1130950BAC1853239F493FD859193FF81917F016A
S1130960853229F4B60190E00E94A606E7CF912CC7
S1130970212C312CFFE1F315D8F08B3279F038F4C7
S1130980803279F08332A1F4232D20611DC08D3291
S113099061F0803369F4232D216016C0832D8260B9
S11309A0382EE32DE4603E2E2AC0F32DF8601DC0DE
S11309B037FC2DC020ED280F2A3040F08E32B9F4D8
S11309C036FC81C1232D2064322E19C036FE06C0A8
S11309D08AE0989E200D1124922E11C0EAE02E9EEA
S11309E0200D1124222EF32DF0623F2E08C08C36E8
S11309F021F4832D8068382E02C0883641F4F70133
S1130A0093FD859193FF81917F018111B3CF982F3D
S1130A109F7D9554933028F40C5F1F4F9FE3998377
S1130A200DC0833631F0833771F0833509F059C036
S1130A3021C0F801808189830E5F1F4F882483942D
S1130A40912C530113C02801F2E04F0E511CF80100
S1130A50A080B18036FE03C0692D70E002C06FEF44
S1130A607FEFC5010E949B064C018201F32DFF77A5
S1130A703F2E16C0280122E0420E511CF801A0802E
S1130A80B18036FE03C0692D70E002C06FEF7FEFC6
S1130A90C5010E9489064C01F32DF0683F2E8201A6
S1130AA033FC1BC0822D90E088169906B0F4B60181
S1130AB080E290E00E94A6062A94F4CFF50137FC68
S1130AC0859137FE81915F01B60190E00E94A606F0
S1130AD021102A9421E0821A91088114910471F75B
S1130AE0E8C0843611F0893641F5F80137FE07C0B5
S1130AF060817181828193810C5F1F4F08C0608186
S1130B007181072E000C880B990B0E5F1F4FF32D7C
S1130B10FF763F2E97FF09C090958095709561955B
S1130B207F4F8F4F9F4FF0683F2E2AE030E0A301A4
S1130B300E94E206882E861845C0853731F4232D9D
S1130B402F7EB22E2AE030E025C0932D997FB92E56
S1130B508F36C1F018F4883579F0B5C0803719F0B4
S1130B60883721F0B0C0E92FE061BE2EB4FE0DC07D
S1130B70FB2DF460BF2E09C034FE0AC0292F266065
S1130B80B22E06C028E030E005C020E130E002C00B
S1130B9020E132E0F801B7FE07C0608171818281F3
S1130BA093810C5F1F4F06C06081718180E090E0EB
S1130BB00E5F1F4FA3010E94E206882E8618FB2DAC
S1130BC0FF773F2E36FE0DC0232D2E7FA22E8914D3
S1130BD058F434FE0BC032FC09C0832D8E7EA82E3F
S1130BE005C0B82CA32C03C0B82C01C0B92CA4FE9A
S1130BF00FC0FE01E80DF11D8081803321F49A2D90
S1130C00997EA92E09C0A2FE06C0B394B39404C071
S1130C108A2D867809F0B394A3FC11C0A0FE06C007
S1130C20B21488F4280C922C9B180EC0B21460F4F1
S1130C30B60180E290E00E94A606B394F7CFB21406
S1130C4018F42B1802C0982C212CA4FE10C0B60155
S1130C5080E390E00E94A606A2FE17C0A1FC03C098
S1130C6088E790E002C088E590E0B6010CC08A2DC8
S1130C70867859F0A1FE02C08BE201C080E2A7FC95
S1130C808DE2B60190E00E94A606891438F4B601FC
S1130C9080E390E00E94A6069A94F7CF8A94F30129
S1130CA0E80DF11D8081B60190E00E94A606811036
S1130CB0F5CF222009F442CEB60180E290E00E94F2
S1130CC0A6062A94F6CFF6018681978102C08FEF9B
S1130CD09FEF2B96E2E10C945C070F931F93CF9345
S1130CE0DF93869F8001879F100D969F100D11241E
S1130CF0C8010E94DA02EC01009729F0A80160E023
S1130D0070E00E949406CE01DF91CF911F910F9164
S1130D100895FC010590615070400110D8F780954A
S1130D2090958E0F9F1F0895DC0101C06D93415073
S1130D305040E0F70895FC016150704001900110AB
S1130D40D8F7809590958E0F9F1F08950F931F934A
S1130D50CF93DF93FB01238121FD03C08FEF9FEF2E
S1130D602CC022FF16C04681578124813581421749
S1130D70530744F4A081B1819D012F5F3F4F31831C
S1130D8020838C93268137812F5F3F4F37832683BF
S1130D9014C08B01EC01FB010084F185E02D099561
S1130DA0892BE1F6D80116968D919C91179701969F
S1130DB017969C938E931697CE01DF91CF911F9136
S1130DC00F910895FA01AA27283051F1203181F1B9
S1130DD0E8946F936E7F6E5F7F4F8F4F9F4FAF4F3F
S1130DE0B1E03ED0B4E03CD0670F781F891F9A1F52
S1130DF0A11D680F791F8A1F911DA11D6A0F711D06
S1130E00811D911DA11D20D009F468943F912AE011
S1130E10269F11243019305D3193DEF6CF010895F9
S1130E20462F4770405D4193B3E00FD0C9F7F6CF2A
S1130E30462F4F70405D4A3318F0495D31FD4052F2
S1130E40419302D0A9F7EACFB4E0A6959795879588
S1130E5077956795BA95C9F7009761057105089567
S1130E609B01AC010A2E0694579547953795279513
S1130E70BA95C9F7620F731F841F951FA01D0895AB
S1130E802F923F924F925F926F927F928F929F9296
S1130E90AF92BF92CF92DF92EF92FF920F931F9384
S1130EA0CF93DF93CDB7DEB7CA1BDB0B0FB6F89435
S1130EB0DEBF0FBECDBF09942A88398848885F8475
S1130EC06E847D848C849B84AA84B984C884DF80E6
S1130ED0EE80FD800C811B81AA81B981CE0FD11DCA
S1130EE00FB6F894DEBF0FBECDBFED010895F894A0
S1050EF0FFCF2E
S1130EF20000D00120005472616E736D69747465D0
S1130F026420646174613A202578200D0A005265D8
S1130F12636569766564206D6573736167653A20FC
S1130F222578200D0A00232323232323232320535C
S1130F3274617274696E67206E657720736573736A
S1130F42696F6E2023232323232323230D004D4380
S1130F525032353135206973204E4F5420696E204A
S1130F62636F6E66696775726174696F6E206D6F07
S1130F7264652061667465722072657365743A20D3
S1130F8225780D0A004D43503235313520697320DE
S1130F92696E20636F6E66696775726174696F6EDC
S1130FA2206D6F6465206166746572207265736575
S1070FB274210D0095
S9030000FC
